{
  "contractName": "CryptoRoots",
  "abi": [
    {
      "inputs": [],
      "stateMutability": "nonpayable",
      "type": "constructor"
    },
    {
      "anonymous": false,
      "inputs": [
        {
          "indexed": true,
          "internalType": "address",
          "name": "account",
          "type": "address"
        },
        {
          "indexed": true,
          "internalType": "address",
          "name": "operator",
          "type": "address"
        },
        {
          "indexed": false,
          "internalType": "bool",
          "name": "approved",
          "type": "bool"
        }
      ],
      "name": "ApprovalForAll",
      "type": "event"
    },
    {
      "anonymous": false,
      "inputs": [
        {
          "indexed": true,
          "internalType": "address",
          "name": "previousOwner",
          "type": "address"
        },
        {
          "indexed": true,
          "internalType": "address",
          "name": "newOwner",
          "type": "address"
        }
      ],
      "name": "OwnershipTransferred",
      "type": "event"
    },
    {
      "anonymous": false,
      "inputs": [
        {
          "indexed": false,
          "internalType": "address",
          "name": "account",
          "type": "address"
        }
      ],
      "name": "Paused",
      "type": "event"
    },
    {
      "anonymous": false,
      "inputs": [
        {
          "indexed": true,
          "internalType": "address",
          "name": "operator",
          "type": "address"
        },
        {
          "indexed": true,
          "internalType": "address",
          "name": "from",
          "type": "address"
        },
        {
          "indexed": true,
          "internalType": "address",
          "name": "to",
          "type": "address"
        },
        {
          "indexed": false,
          "internalType": "uint256[]",
          "name": "ids",
          "type": "uint256[]"
        },
        {
          "indexed": false,
          "internalType": "uint256[]",
          "name": "values",
          "type": "uint256[]"
        }
      ],
      "name": "TransferBatch",
      "type": "event"
    },
    {
      "anonymous": false,
      "inputs": [
        {
          "indexed": true,
          "internalType": "address",
          "name": "operator",
          "type": "address"
        },
        {
          "indexed": true,
          "internalType": "address",
          "name": "from",
          "type": "address"
        },
        {
          "indexed": true,
          "internalType": "address",
          "name": "to",
          "type": "address"
        },
        {
          "indexed": false,
          "internalType": "uint256",
          "name": "id",
          "type": "uint256"
        },
        {
          "indexed": false,
          "internalType": "uint256",
          "name": "value",
          "type": "uint256"
        }
      ],
      "name": "TransferSingle",
      "type": "event"
    },
    {
      "anonymous": false,
      "inputs": [
        {
          "indexed": false,
          "internalType": "string",
          "name": "value",
          "type": "string"
        },
        {
          "indexed": true,
          "internalType": "uint256",
          "name": "id",
          "type": "uint256"
        }
      ],
      "name": "URI",
      "type": "event"
    },
    {
      "anonymous": false,
      "inputs": [
        {
          "indexed": false,
          "internalType": "address",
          "name": "account",
          "type": "address"
        }
      ],
      "name": "Unpaused",
      "type": "event"
    },
    {
      "inputs": [
        {
          "internalType": "address",
          "name": "account",
          "type": "address"
        },
        {
          "internalType": "uint256",
          "name": "id",
          "type": "uint256"
        }
      ],
      "name": "balanceOf",
      "outputs": [
        {
          "internalType": "uint256",
          "name": "",
          "type": "uint256"
        }
      ],
      "stateMutability": "view",
      "type": "function",
      "constant": true
    },
    {
      "inputs": [
        {
          "internalType": "address[]",
          "name": "accounts",
          "type": "address[]"
        },
        {
          "internalType": "uint256[]",
          "name": "ids",
          "type": "uint256[]"
        }
      ],
      "name": "balanceOfBatch",
      "outputs": [
        {
          "internalType": "uint256[]",
          "name": "",
          "type": "uint256[]"
        }
      ],
      "stateMutability": "view",
      "type": "function",
      "constant": true
    },
    {
      "inputs": [
        {
          "internalType": "uint256",
          "name": "id",
          "type": "uint256"
        }
      ],
      "name": "exists",
      "outputs": [
        {
          "internalType": "bool",
          "name": "",
          "type": "bool"
        }
      ],
      "stateMutability": "view",
      "type": "function",
      "constant": true
    },
    {
      "inputs": [
        {
          "internalType": "address",
          "name": "account",
          "type": "address"
        },
        {
          "internalType": "address",
          "name": "operator",
          "type": "address"
        }
      ],
      "name": "isApprovedForAll",
      "outputs": [
        {
          "internalType": "bool",
          "name": "",
          "type": "bool"
        }
      ],
      "stateMutability": "view",
      "type": "function",
      "constant": true
    },
    {
      "inputs": [],
      "name": "owner",
      "outputs": [
        {
          "internalType": "address",
          "name": "",
          "type": "address"
        }
      ],
      "stateMutability": "view",
      "type": "function",
      "constant": true
    },
    {
      "inputs": [],
      "name": "paused",
      "outputs": [
        {
          "internalType": "bool",
          "name": "",
          "type": "bool"
        }
      ],
      "stateMutability": "view",
      "type": "function",
      "constant": true
    },
    {
      "inputs": [],
      "name": "renounceOwnership",
      "outputs": [],
      "stateMutability": "nonpayable",
      "type": "function"
    },
    {
      "inputs": [
        {
          "internalType": "address",
          "name": "from",
          "type": "address"
        },
        {
          "internalType": "address",
          "name": "to",
          "type": "address"
        },
        {
          "internalType": "uint256[]",
          "name": "ids",
          "type": "uint256[]"
        },
        {
          "internalType": "uint256[]",
          "name": "amounts",
          "type": "uint256[]"
        },
        {
          "internalType": "bytes",
          "name": "data",
          "type": "bytes"
        }
      ],
      "name": "safeBatchTransferFrom",
      "outputs": [],
      "stateMutability": "nonpayable",
      "type": "function"
    },
    {
      "inputs": [
        {
          "internalType": "address",
          "name": "from",
          "type": "address"
        },
        {
          "internalType": "address",
          "name": "to",
          "type": "address"
        },
        {
          "internalType": "uint256",
          "name": "id",
          "type": "uint256"
        },
        {
          "internalType": "uint256",
          "name": "amount",
          "type": "uint256"
        },
        {
          "internalType": "bytes",
          "name": "data",
          "type": "bytes"
        }
      ],
      "name": "safeTransferFrom",
      "outputs": [],
      "stateMutability": "nonpayable",
      "type": "function"
    },
    {
      "inputs": [
        {
          "internalType": "address",
          "name": "operator",
          "type": "address"
        },
        {
          "internalType": "bool",
          "name": "approved",
          "type": "bool"
        }
      ],
      "name": "setApprovalForAll",
      "outputs": [],
      "stateMutability": "nonpayable",
      "type": "function"
    },
    {
      "inputs": [
        {
          "internalType": "bytes4",
          "name": "interfaceId",
          "type": "bytes4"
        }
      ],
      "name": "supportsInterface",
      "outputs": [
        {
          "internalType": "bool",
          "name": "",
          "type": "bool"
        }
      ],
      "stateMutability": "view",
      "type": "function",
      "constant": true
    },
    {
      "inputs": [
        {
          "internalType": "uint256",
          "name": "id",
          "type": "uint256"
        }
      ],
      "name": "totalSupply",
      "outputs": [
        {
          "internalType": "uint256",
          "name": "",
          "type": "uint256"
        }
      ],
      "stateMutability": "view",
      "type": "function",
      "constant": true
    },
    {
      "inputs": [
        {
          "internalType": "address",
          "name": "newOwner",
          "type": "address"
        }
      ],
      "name": "transferOwnership",
      "outputs": [],
      "stateMutability": "nonpayable",
      "type": "function"
    },
    {
      "inputs": [
        {
          "internalType": "uint256",
          "name": "",
          "type": "uint256"
        }
      ],
      "name": "uri",
      "outputs": [
        {
          "internalType": "string",
          "name": "",
          "type": "string"
        }
      ],
      "stateMutability": "view",
      "type": "function",
      "constant": true
    },
    {
      "inputs": [],
      "name": "usdId1",
      "outputs": [
        {
          "internalType": "uint256",
          "name": "",
          "type": "uint256"
        }
      ],
      "stateMutability": "view",
      "type": "function",
      "constant": true
    },
    {
      "inputs": [],
      "name": "usdId2",
      "outputs": [
        {
          "internalType": "uint256",
          "name": "",
          "type": "uint256"
        }
      ],
      "stateMutability": "view",
      "type": "function",
      "constant": true
    },
    {
      "inputs": [],
      "name": "usdId3",
      "outputs": [
        {
          "internalType": "uint256",
          "name": "",
          "type": "uint256"
        }
      ],
      "stateMutability": "view",
      "type": "function",
      "constant": true
    },
    {
      "inputs": [],
      "name": "usdId4",
      "outputs": [
        {
          "internalType": "uint256",
          "name": "",
          "type": "uint256"
        }
      ],
      "stateMutability": "view",
      "type": "function",
      "constant": true
    },
    {
      "inputs": [],
      "name": "usdId5",
      "outputs": [
        {
          "internalType": "uint256",
          "name": "",
          "type": "uint256"
        }
      ],
      "stateMutability": "view",
      "type": "function",
      "constant": true
    },
    {
      "inputs": [],
      "name": "getLatestPriceId1",
      "outputs": [
        {
          "internalType": "uint256",
          "name": "",
          "type": "uint256"
        }
      ],
      "stateMutability": "view",
      "type": "function",
      "constant": true
    },
    {
      "inputs": [],
      "name": "getLatestPriceId2",
      "outputs": [
        {
          "internalType": "uint256",
          "name": "",
          "type": "uint256"
        }
      ],
      "stateMutability": "view",
      "type": "function",
      "constant": true
    },
    {
      "inputs": [],
      "name": "getLatestPriceId3",
      "outputs": [
        {
          "internalType": "uint256",
          "name": "",
          "type": "uint256"
        }
      ],
      "stateMutability": "view",
      "type": "function",
      "constant": true
    },
    {
      "inputs": [],
      "name": "getLatestPriceId4",
      "outputs": [
        {
          "internalType": "uint256",
          "name": "",
          "type": "uint256"
        }
      ],
      "stateMutability": "view",
      "type": "function",
      "constant": true
    },
    {
      "inputs": [],
      "name": "getLatestPriceId5",
      "outputs": [
        {
          "internalType": "uint256",
          "name": "",
          "type": "uint256"
        }
      ],
      "stateMutability": "view",
      "type": "function",
      "constant": true
    },
    {
      "inputs": [
        {
          "internalType": "uint256",
          "name": "id",
          "type": "uint256"
        },
        {
          "internalType": "uint256",
          "name": "amount",
          "type": "uint256"
        }
      ],
      "name": "mint",
      "outputs": [],
      "stateMutability": "payable",
      "type": "function",
      "payable": true
    },
    {
      "inputs": [
        {
          "internalType": "string",
          "name": "newuri",
          "type": "string"
        }
      ],
      "name": "setURI",
      "outputs": [],
      "stateMutability": "nonpayable",
      "type": "function"
    },
    {
      "inputs": [],
      "name": "pause",
      "outputs": [],
      "stateMutability": "nonpayable",
      "type": "function"
    },
    {
      "inputs": [],
      "name": "unpause",
      "outputs": [],
      "stateMutability": "nonpayable",
      "type": "function"
    },
    {
      "inputs": [],
      "name": "withdraw",
      "outputs": [],
      "stateMutability": "nonpayable",
      "type": "function"
    }
  ],
  "bytecode": "0x60806040526040518060a001604052806502ba7def300065ffffffffffff1681526020016502ba7def300065ffffffffffff1681526020016502ba7def300065ffffffffffff1681526020016502ba7def300065ffffffffffff1681526020016502ba7def300065ffffffffffff16815250600b9060056200008392919062000347565b506040518060a001604052805f60ff1681526020015f60ff1681526020015f60ff1681526020015f60ff1681526020015f60ff16815250600c906005620000cc929190620003a1565b506040518060a00160405280655af3107a400065ffffffffffff168152602001655af3107a400065ffffffffffff168152602001655af3107a400065ffffffffffff168152602001655af3107a400065ffffffffffff168152602001655af3107a400065ffffffffffff16815250600d9060056200014c92919062000347565b5034801562000159575f80fd5b506040518060800160405280604c8152602001620048b8604c913962000185816200026660201b60201c565b505f60035f6101000a81548160ff021916908315150217905550620001bf620001b36200027b60201b60201c565b6200028260201b60201c565b670de0b6b3a7640000600681905550674563918244f40000600781905550678ac7230489e800006008819055506801158e460913d0000060098190555068056bc75e2d63100000600a8190555073d0d5e3db44de05e9f294bb0a3beeaf030de24ada60055f6101000a81548173ffffffffffffffffffffffffffffffffffffffff021916908373ffffffffffffffffffffffffffffffffffffffff1602179055506200075b565b806002908162000277919062000677565b5050565b5f33905090565b5f600360019054906101000a900473ffffffffffffffffffffffffffffffffffffffff16905081600360016101000a81548173ffffffffffffffffffffffffffffffffffffffff021916908373ffffffffffffffffffffffffffffffffffffffff1602179055508173ffffffffffffffffffffffffffffffffffffffff168173ffffffffffffffffffffffffffffffffffffffff167f8be0079c531659141344cd1fd0a4f28419497f9722a3daafe3b4186f6b6457e060405160405180910390a35050565b828054828255905f5260205f209081019282156200038e579160200282015b828111156200038d578251829065ffffffffffff1690559160200191906001019062000366565b5b5090506200039d9190620003f6565b5090565b828054828255905f5260205f20908101928215620003e3579160200282015b82811115620003e2578251829060ff16905591602001919060010190620003c0565b5b509050620003f29190620003f6565b5090565b5b808211156200040f575f815f905550600101620003f7565b5090565b5f81519050919050565b7f4e487b71000000000000000000000000000000000000000000000000000000005f52604160045260245ffd5b7f4e487b71000000000000000000000000000000000000000000000000000000005f52602260045260245ffd5b5f60028204905060018216806200048f57607f821691505b602082108103620004a557620004a46200044a565b5b50919050565b5f819050815f5260205f209050919050565b5f6020601f8301049050919050565b5f82821b905092915050565b5f60088302620005097fffffffffffffffffffffffffffffffffffffffffffffffffffffffffffffffff82620004cc565b620005158683620004cc565b95508019841693508086168417925050509392505050565b5f819050919050565b5f819050919050565b5f6200055f6200055962000553846200052d565b62000536565b6200052d565b9050919050565b5f819050919050565b6200057a836200053f565b62000592620005898262000566565b848454620004d8565b825550505050565b5f90565b620005a86200059a565b620005b58184846200056f565b505050565b5b81811015620005dc57620005d05f826200059e565b600181019050620005bb565b5050565b601f8211156200062b57620005f581620004ab565b6200060084620004bd565b8101602085101562000610578190505b620006286200061f85620004bd565b830182620005ba565b50505b505050565b5f82821c905092915050565b5f6200064d5f198460080262000630565b1980831691505092915050565b5f6200066783836200063c565b9150826002028217905092915050565b620006828262000413565b67ffffffffffffffff8111156200069e576200069d6200041d565b5b620006aa825462000477565b620006b7828285620005e0565b5f60209050601f831160018114620006ed575f8415620006d8578287015190505b620006e485826200065a565b86555062000753565b601f198416620006fd86620004ab565b5f5b828110156200072657848901518255600182019150602085019450602081019050620006ff565b8683101562000746578489015162000742601f8916826200063c565b8355505b6001600288020188555050505b505050505050565b61414f80620007695f395ff3fe6080604052600436106101c0575f3560e01c806374ccb7a9116100f6578063b80a448111610094578063e985e9c511610063578063e985e9c5146105e6578063f242432a14610622578063f2fde38b1461064a578063f9d8356114610672576101c0565b8063b80a44811461052c578063bd85b03914610556578063bff5116314610592578063c1e66bdf146105bc576101c0565b806392c56db6116100d057806392c56db614610486578063a22cb465146104b0578063accd6114146104d8578063aef3d46e14610502576101c0565b806374ccb7a91461041c5780638456cb59146104465780638da5cb5b1461045c576101c0565b80633ccfd60b116101635780634e1273f41161013d5780634e1273f4146103645780634f558e79146103a05780635c975abb146103dc578063715018a614610406576101c0565b80633ccfd60b1461030e5780633f4ba83a14610324578063477b6b4b1461033a576101c0565b80630e89341c1161019f5780630e89341c146102645780631b2ef1ca146102a05780632eb2c2d6146102bc5780633c6b1cf6146102e4576101c0565b8062fdd58e146101c457806301ffc9a71461020057806302fe53051461023c575b5f80fd5b3480156101cf575f80fd5b506101ea60048036038101906101e59190612643565b61069c565b6040516101f79190612690565b60405180910390f35b34801561020b575f80fd5b50610226600480360381019061022191906126fe565b61075f565b6040516102339190612743565b60405180910390f35b348015610247575f80fd5b50610262600480360381019061025d9190612898565b610840565b005b34801561026f575f80fd5b5061028a600480360381019061028591906128df565b610854565b6040516102979190612984565b60405180910390f35b6102ba60048036038101906102b591906129a4565b6108e6565b005b3480156102c7575f80fd5b506102e260048036038101906102dd9190612b44565b610ac1565b005b3480156102ef575f80fd5b506102f8610b62565b6040516103059190612690565b60405180910390f35b348015610319575f80fd5b50610322610b68565b005b34801561032f575f80fd5b50610338610bff565b005b348015610345575f80fd5b5061034e610c11565b60405161035b9190612690565b60405180910390f35b34801561036f575f80fd5b5061038a60048036038101906103859190612ccf565b610ce8565b6040516103979190612dfc565b60405180910390f35b3480156103ab575f80fd5b506103c660048036038101906103c191906128df565b610df9565b6040516103d39190612743565b60405180910390f35b3480156103e7575f80fd5b506103f0610e0c565b6040516103fd9190612743565b60405180910390f35b348015610411575f80fd5b5061041a610e21565b005b348015610427575f80fd5b50610430610e34565b60405161043d9190612690565b60405180910390f35b348015610451575f80fd5b5061045a610e3a565b005b348015610467575f80fd5b50610470610e4c565b60405161047d9190612e2b565b60405180910390f35b348015610491575f80fd5b5061049a610e75565b6040516104a79190612690565b60405180910390f35b3480156104bb575f80fd5b506104d660048036038101906104d19190612e6e565b610e7b565b005b3480156104e3575f80fd5b506104ec610e91565b6040516104f99190612690565b60405180910390f35b34801561050d575f80fd5b50610516610f68565b6040516105239190612690565b60405180910390f35b348015610537575f80fd5b5061054061103f565b60405161054d9190612690565b60405180910390f35b348015610561575f80fd5b5061057c600480360381019061057791906128df565b611045565b6040516105899190612690565b60405180910390f35b34801561059d575f80fd5b506105a661105f565b6040516105b39190612690565b60405180910390f35b3480156105c7575f80fd5b506105d0611136565b6040516105dd9190612690565b60405180910390f35b3480156105f1575f80fd5b5061060c60048036038101906106079190612eac565b61113c565b6040516106199190612743565b60405180910390f35b34801561062d575f80fd5b5061064860048036038101906106439190612eea565b6111ca565b005b348015610655575f80fd5b50610670600480360381019061066b9190612f7d565b61126b565b005b34801561067d575f80fd5b506106866112ed565b6040516106939190612690565b60405180910390f35b5f8073ffffffffffffffffffffffffffffffffffffffff168373ffffffffffffffffffffffffffffffffffffffff160361070b576040517f08c379a000000000000000000000000000000000000000000000000000000000815260040161070290613018565b60405180910390fd5b5f808381526020019081526020015f205f8473ffffffffffffffffffffffffffffffffffffffff1673ffffffffffffffffffffffffffffffffffffffff1681526020019081526020015f2054905092915050565b5f7fd9b67a26000000000000000000000000000000000000000000000000000000007bffffffffffffffffffffffffffffffffffffffffffffffffffffffff1916827bffffffffffffffffffffffffffffffffffffffffffffffffffffffff1916148061082957507f0e89341c000000000000000000000000000000000000000000000000000000007bffffffffffffffffffffffffffffffffffffffffffffffffffffffff1916827bffffffffffffffffffffffffffffffffffffffffffffffffffffffff1916145b806108395750610838826113c4565b5b9050919050565b61084861142d565b610851816114ab565b50565b60606002805461086390613063565b80601f016020809104026020016040519081016040528092919081815260200182805461088f90613063565b80156108da5780601f106108b1576101008083540402835291602001916108da565b820191905f5260205f20905b8154815290600101906020018083116108bd57829003601f168201915b50505050509050919050565b600b8054905082111561092e576040517f08c379a0000000000000000000000000000000000000000000000000000000008152600401610925906130dd565b60405180910390fd5b5f8211610970576040517f08c379a000000000000000000000000000000000000000000000000000000000815260040161096790613145565b60405180910390fd5b5f60018361097e9190613190565b9050600b8181548110610994576109936131c3565b5b905f5260205f20015482600c83815481106109b2576109b16131c3565b5b905f5260205f2001546109c591906131f0565b1115610a06576040517f08c379a00000000000000000000000000000000000000000000000000000000081526004016109fd9061326d565b60405180910390fd5b600d8181548110610a1a57610a196131c3565b5b905f5260205f20015482610a2e919061328b565b341015610a70576040517f08c379a0000000000000000000000000000000000000000000000000000000008152600401610a6790613316565b60405180910390fd5b610a8a33848460405180602001604052805f8152506114be565b81600c8281548110610a9f57610a9e6131c3565b5b905f5260205f20015f828254610ab591906131f0565b92505081905550505050565b610ac9611661565b73ffffffffffffffffffffffffffffffffffffffff168573ffffffffffffffffffffffffffffffffffffffff161480610b0f5750610b0e85610b09611661565b61113c565b5b610b4e576040517f08c379a0000000000000000000000000000000000000000000000000000000008152600401610b45906133a4565b60405180910390fd5b610b5b8585858585611668565b5050505050565b60095481565b610b7061142d565b5f4711610bb2576040517f08c379a0000000000000000000000000000000000000000000000000000000008152600401610ba99061340c565b60405180910390fd5b610bba610e4c565b73ffffffffffffffffffffffffffffffffffffffff166108fc4790811502906040515f60405180830381858888f19350505050158015610bfc573d5f803e3d5ffd5b50565b610c0761142d565b610c0f611970565b565b5f8060055f9054906101000a900473ffffffffffffffffffffffffffffffffffffffff1673ffffffffffffffffffffffffffffffffffffffff1663feaf968c6040518163ffffffff1660e01b815260040160a060405180830381865afa158015610c7d573d5f803e3d5ffd5b505050506040513d601f19601f82011682018060405250810190610ca191906134b0565b5050509150505f6402540be40082610cb9919061328b565b90505f8167016345785d8a0000600a54610cd3919061328b565b610cdd9190613554565b905080935050505090565b60608151835114610d2e576040517f08c379a0000000000000000000000000000000000000000000000000000000008152600401610d25906135f4565b60405180910390fd5b5f835167ffffffffffffffff811115610d4a57610d49612774565b5b604051908082528060200260200182016040528015610d785781602001602082028036833780820191505090505b5090505f5b8451811015610dee57610dc4858281518110610d9c57610d9b6131c3565b5b6020026020010151858381518110610db757610db66131c3565b5b602002602001015161069c565b828281518110610dd757610dd66131c3565b5b602002602001018181525050806001019050610d7d565b508091505092915050565b5f80610e0483611045565b119050919050565b5f60035f9054906101000a900460ff16905090565b610e2961142d565b610e325f6119d1565b565b600a5481565b610e4261142d565b610e4a611a96565b565b5f600360019054906101000a900473ffffffffffffffffffffffffffffffffffffffff16905090565b60065481565b610e8d610e86611661565b8383611af8565b5050565b5f8060055f9054906101000a900473ffffffffffffffffffffffffffffffffffffffff1673ffffffffffffffffffffffffffffffffffffffff1663feaf968c6040518163ffffffff1660e01b815260040160a060405180830381865afa158015610efd573d5f803e3d5ffd5b505050506040513d601f19601f82011682018060405250810190610f2191906134b0565b5050509150505f6402540be40082610f39919061328b565b90505f8167016345785d8a0000600754610f53919061328b565b610f5d9190613554565b905080935050505090565b5f8060055f9054906101000a900473ffffffffffffffffffffffffffffffffffffffff1673ffffffffffffffffffffffffffffffffffffffff1663feaf968c6040518163ffffffff1660e01b815260040160a060405180830381865afa158015610fd4573d5f803e3d5ffd5b505050506040513d601f19601f82011682018060405250810190610ff891906134b0565b5050509150505f6402540be40082611010919061328b565b90505f8167016345785d8a000060065461102a919061328b565b6110349190613554565b905080935050505090565b60075481565b5f60045f8381526020019081526020015f20549050919050565b5f8060055f9054906101000a900473ffffffffffffffffffffffffffffffffffffffff1673ffffffffffffffffffffffffffffffffffffffff1663feaf968c6040518163ffffffff1660e01b815260040160a060405180830381865afa1580156110cb573d5f803e3d5ffd5b505050506040513d601f19601f820116820180604052508101906110ef91906134b0565b5050509150505f6402540be40082611107919061328b565b90505f8167016345785d8a0000600854611121919061328b565b61112b9190613554565b905080935050505090565b60085481565b5f60015f8473ffffffffffffffffffffffffffffffffffffffff1673ffffffffffffffffffffffffffffffffffffffff1681526020019081526020015f205f8373ffffffffffffffffffffffffffffffffffffffff1673ffffffffffffffffffffffffffffffffffffffff1681526020019081526020015f205f9054906101000a900460ff16905092915050565b6111d2611661565b73ffffffffffffffffffffffffffffffffffffffff168573ffffffffffffffffffffffffffffffffffffffff161480611218575061121785611212611661565b61113c565b5b611257576040517f08c379a000000000000000000000000000000000000000000000000000000000815260040161124e906133a4565b60405180910390fd5b6112648585858585611c5f565b5050505050565b61127361142d565b5f73ffffffffffffffffffffffffffffffffffffffff168173ffffffffffffffffffffffffffffffffffffffff16036112e1576040517f08c379a00000000000000000000000000000000000000000000000000000000081526004016112d890613682565b60405180910390fd5b6112ea816119d1565b50565b5f8060055f9054906101000a900473ffffffffffffffffffffffffffffffffffffffff1673ffffffffffffffffffffffffffffffffffffffff1663feaf968c6040518163ffffffff1660e01b815260040160a060405180830381865afa158015611359573d5f803e3d5ffd5b505050506040513d601f19601f8201168201806040525081019061137d91906134b0565b5050509150505f6402540be40082611395919061328b565b90505f8167016345785d8a00006009546113af919061328b565b6113b99190613554565b905080935050505090565b5f7f01ffc9a7000000000000000000000000000000000000000000000000000000007bffffffffffffffffffffffffffffffffffffffffffffffffffffffff1916827bffffffffffffffffffffffffffffffffffffffffffffffffffffffff1916149050919050565b611435611661565b73ffffffffffffffffffffffffffffffffffffffff16611453610e4c565b73ffffffffffffffffffffffffffffffffffffffff16146114a9576040517f08c379a00000000000000000000000000000000000000000000000000000000081526004016114a0906136ea565b60405180910390fd5b565b80600290816114ba91906138a5565b5050565b5f73ffffffffffffffffffffffffffffffffffffffff168473ffffffffffffffffffffffffffffffffffffffff160361152c576040517f08c379a0000000000000000000000000000000000000000000000000000000008152600401611523906139e4565b60405180910390fd5b5f611535611661565b90505f61154185611ee8565b90505f61154d85611ee8565b905061155d835f89858589611f60565b845f808881526020019081526020015f205f8973ffffffffffffffffffffffffffffffffffffffff1673ffffffffffffffffffffffffffffffffffffffff1681526020019081526020015f205f8282546115b791906131f0565b925050819055508673ffffffffffffffffffffffffffffffffffffffff165f73ffffffffffffffffffffffffffffffffffffffff168473ffffffffffffffffffffffffffffffffffffffff167fc3d58168c5ae7397731d063d5bbf3d657854427343f4c083240f7aacaa2d0f628989604051611634929190613a02565b60405180910390a461164a835f89858589611f7e565b611658835f89898989611f86565b50505050505050565b5f33905090565b81518351146116ac576040517f08c379a00000000000000000000000000000000000000000000000000000000081526004016116a390613a99565b60405180910390fd5b5f73ffffffffffffffffffffffffffffffffffffffff168473ffffffffffffffffffffffffffffffffffffffff160361171a576040517f08c379a000000000000000000000000000000000000000000000000000000000815260040161171190613b27565b60405180910390fd5b5f611723611661565b9050611733818787878787611f60565b5f5b84518110156118cd575f858281518110611752576117516131c3565b5b602002602001015190505f8583815181106117705761176f6131c3565b5b602002602001015190505f805f8481526020019081526020015f205f8b73ffffffffffffffffffffffffffffffffffffffff1673ffffffffffffffffffffffffffffffffffffffff1681526020019081526020015f205490508181101561180c576040517f08c379a000000000000000000000000000000000000000000000000000000000815260040161180390613bb5565b60405180910390fd5b8181035f808581526020019081526020015f205f8c73ffffffffffffffffffffffffffffffffffffffff1673ffffffffffffffffffffffffffffffffffffffff1681526020019081526020015f2081905550815f808581526020019081526020015f205f8b73ffffffffffffffffffffffffffffffffffffffff1673ffffffffffffffffffffffffffffffffffffffff1681526020019081526020015f205f8282546118b891906131f0565b92505081905550505050806001019050611735565b508473ffffffffffffffffffffffffffffffffffffffff168673ffffffffffffffffffffffffffffffffffffffff168273ffffffffffffffffffffffffffffffffffffffff167f4a39dc06d4c0dbc64b70af90fd698a233a518aa5d07e595d983b8c0526c8f7fb8787604051611944929190613bd3565b60405180910390a461195a818787878787611f7e565b61196881878787878761215c565b505050505050565b611978612332565b5f60035f6101000a81548160ff0219169083151502179055507f5db9ee0a495bf2e6ff9c91a7834c1ba4fdd244a5e8aa4e537bd38aeae4b073aa6119ba611661565b6040516119c79190612e2b565b60405180910390a1565b5f600360019054906101000a900473ffffffffffffffffffffffffffffffffffffffff16905081600360016101000a81548173ffffffffffffffffffffffffffffffffffffffff021916908373ffffffffffffffffffffffffffffffffffffffff1602179055508173ffffffffffffffffffffffffffffffffffffffff168173ffffffffffffffffffffffffffffffffffffffff167f8be0079c531659141344cd1fd0a4f28419497f9722a3daafe3b4186f6b6457e060405160405180910390a35050565b611a9e61237b565b600160035f6101000a81548160ff0219169083151502179055507f62e78cea01bee320cd4e420270b5ea74000d11b0c9f74754ebdbfc544b05a258611ae1611661565b604051611aee9190612e2b565b60405180910390a1565b8173ffffffffffffffffffffffffffffffffffffffff168373ffffffffffffffffffffffffffffffffffffffff1603611b66576040517f08c379a0000000000000000000000000000000000000000000000000000000008152600401611b5d90613c78565b60405180910390fd5b8060015f8573ffffffffffffffffffffffffffffffffffffffff1673ffffffffffffffffffffffffffffffffffffffff1681526020019081526020015f205f8473ffffffffffffffffffffffffffffffffffffffff1673ffffffffffffffffffffffffffffffffffffffff1681526020019081526020015f205f6101000a81548160ff0219169083151502179055508173ffffffffffffffffffffffffffffffffffffffff168373ffffffffffffffffffffffffffffffffffffffff167f17307eab39ab6107e8899845ad3d59bd9653f200f220920489ca2b5937696c3183604051611c529190612743565b60405180910390a3505050565b5f73ffffffffffffffffffffffffffffffffffffffff168473ffffffffffffffffffffffffffffffffffffffff1603611ccd576040517f08c379a0000000000000000000000000000000000000000000000000000000008152600401611cc490613b27565b60405180910390fd5b5f611cd6611661565b90505f611ce285611ee8565b90505f611cee85611ee8565b9050611cfe838989858589611f60565b5f805f8881526020019081526020015f205f8a73ffffffffffffffffffffffffffffffffffffffff1673ffffffffffffffffffffffffffffffffffffffff1681526020019081526020015f2054905085811015611d90576040517f08c379a0000000000000000000000000000000000000000000000000000000008152600401611d8790613bb5565b60405180910390fd5b8581035f808981526020019081526020015f205f8b73ffffffffffffffffffffffffffffffffffffffff1673ffffffffffffffffffffffffffffffffffffffff1681526020019081526020015f2081905550855f808981526020019081526020015f205f8a73ffffffffffffffffffffffffffffffffffffffff1673ffffffffffffffffffffffffffffffffffffffff1681526020019081526020015f205f828254611e3c91906131f0565b925050819055508773ffffffffffffffffffffffffffffffffffffffff168973ffffffffffffffffffffffffffffffffffffffff168573ffffffffffffffffffffffffffffffffffffffff167fc3d58168c5ae7397731d063d5bbf3d657854427343f4c083240f7aacaa2d0f628a8a604051611eb9929190613a02565b60405180910390a4611ecf848a8a86868a611f7e565b611edd848a8a8a8a8a611f86565b505050505050505050565b60605f600167ffffffffffffffff811115611f0657611f05612774565b5b604051908082528060200260200182016040528015611f345781602001602082028036833780820191505090505b50905082815f81518110611f4b57611f4a6131c3565b5b60200260200101818152505080915050919050565b611f6861237b565b611f768686868686866123c5565b505050505050565b505050505050565b611fa58473ffffffffffffffffffffffffffffffffffffffff1661257b565b15612154578373ffffffffffffffffffffffffffffffffffffffff1663f23a6e6187878686866040518663ffffffff1660e01b8152600401611feb959493929190613ce8565b6020604051808303815f875af192505050801561202657506040513d601f19601f820116820180604052508101906120239190613d54565b60015b6120cb57612032613d8b565b806308c379a00361208e5750612046613daa565b806120515750612090565b806040517f08c379a00000000000000000000000000000000000000000000000000000000081526004016120859190612984565b60405180910390fd5b505b6040517f08c379a00000000000000000000000000000000000000000000000000000000081526004016120c290613ea9565b60405180910390fd5b63f23a6e6160e01b7bffffffffffffffffffffffffffffffffffffffffffffffffffffffff1916817bffffffffffffffffffffffffffffffffffffffffffffffffffffffff191614612152576040517f08c379a000000000000000000000000000000000000000000000000000000000815260040161214990613f37565b60405180910390fd5b505b505050505050565b61217b8473ffffffffffffffffffffffffffffffffffffffff1661257b565b1561232a578373ffffffffffffffffffffffffffffffffffffffff1663bc197c8187878686866040518663ffffffff1660e01b81526004016121c1959493929190613f55565b6020604051808303815f875af19250505080156121fc57506040513d601f19601f820116820180604052508101906121f99190613d54565b60015b6122a157612208613d8b565b806308c379a003612264575061221c613daa565b806122275750612266565b806040517f08c379a000000000000000000000000000000000000000000000000000000000815260040161225b9190612984565b60405180910390fd5b505b6040517f08c379a000000000000000000000000000000000000000000000000000000000815260040161229890613ea9565b60405180910390fd5b63bc197c8160e01b7bffffffffffffffffffffffffffffffffffffffffffffffffffffffff1916817bffffffffffffffffffffffffffffffffffffffffffffffffffffffff191614612328576040517f08c379a000000000000000000000000000000000000000000000000000000000815260040161231f90613f37565b60405180910390fd5b505b505050505050565b61233a610e0c565b612379576040517f08c379a000000000000000000000000000000000000000000000000000000000815260040161237090614005565b60405180910390fd5b565b612383610e0c565b156123c3576040517f08c379a00000000000000000000000000000000000000000000000000000000081526004016123ba9061406d565b60405180910390fd5b565b6123d386868686868661259d565b5f73ffffffffffffffffffffffffffffffffffffffff168573ffffffffffffffffffffffffffffffffffffffff1603612479575f5b835181101561247757828181518110612424576124236131c3565b5b602002602001015160045f868481518110612442576124416131c3565b5b602002602001015181526020019081526020015f205f82825461246591906131f0565b92505081905550806001019050612408565b505b5f73ffffffffffffffffffffffffffffffffffffffff168473ffffffffffffffffffffffffffffffffffffffff1603612573575f5b8351811015612571575f8482815181106124cb576124ca6131c3565b5b602002602001015190505f8483815181106124e9576124e86131c3565b5b602002602001015190505f60045f8481526020019081526020015f205490508181101561254b576040517f08c379a0000000000000000000000000000000000000000000000000000000008152600401612542906140fb565b60405180910390fd5b81810360045f8581526020019081526020015f20819055505050508060010190506124ae565b505b505050505050565b5f808273ffffffffffffffffffffffffffffffffffffffff163b119050919050565b505050505050565b5f604051905090565b5f80fd5b5f80fd5b5f73ffffffffffffffffffffffffffffffffffffffff82169050919050565b5f6125df826125b6565b9050919050565b6125ef816125d5565b81146125f9575f80fd5b50565b5f8135905061260a816125e6565b92915050565b5f819050919050565b61262281612610565b811461262c575f80fd5b50565b5f8135905061263d81612619565b92915050565b5f8060408385031215612659576126586125ae565b5b5f612666858286016125fc565b92505060206126778582860161262f565b9150509250929050565b61268a81612610565b82525050565b5f6020820190506126a35f830184612681565b92915050565b5f7fffffffff0000000000000000000000000000000000000000000000000000000082169050919050565b6126dd816126a9565b81146126e7575f80fd5b50565b5f813590506126f8816126d4565b92915050565b5f60208284031215612713576127126125ae565b5b5f612720848285016126ea565b91505092915050565b5f8115159050919050565b61273d81612729565b82525050565b5f6020820190506127565f830184612734565b92915050565b5f80fd5b5f80fd5b5f601f19601f8301169050919050565b7f4e487b71000000000000000000000000000000000000000000000000000000005f52604160045260245ffd5b6127aa82612764565b810181811067ffffffffffffffff821117156127c9576127c8612774565b5b80604052505050565b5f6127db6125a5565b90506127e782826127a1565b919050565b5f67ffffffffffffffff82111561280657612805612774565b5b61280f82612764565b9050602081019050919050565b828183375f83830152505050565b5f61283c612837846127ec565b6127d2565b90508281526020810184848401111561285857612857612760565b5b61286384828561281c565b509392505050565b5f82601f83011261287f5761287e61275c565b5b813561288f84826020860161282a565b91505092915050565b5f602082840312156128ad576128ac6125ae565b5b5f82013567ffffffffffffffff8111156128ca576128c96125b2565b5b6128d68482850161286b565b91505092915050565b5f602082840312156128f4576128f36125ae565b5b5f6129018482850161262f565b91505092915050565b5f81519050919050565b5f82825260208201905092915050565b5f5b83811015612941578082015181840152602081019050612926565b5f8484015250505050565b5f6129568261290a565b6129608185612914565b9350612970818560208601612924565b61297981612764565b840191505092915050565b5f6020820190508181035f83015261299c818461294c565b905092915050565b5f80604083850312156129ba576129b96125ae565b5b5f6129c78582860161262f565b92505060206129d88582860161262f565b9150509250929050565b5f67ffffffffffffffff8211156129fc576129fb612774565b5b602082029050602081019050919050565b5f80fd5b5f612a23612a1e846129e2565b6127d2565b90508083825260208201905060208402830185811115612a4657612a45612a0d565b5b835b81811015612a6f5780612a5b888261262f565b845260208401935050602081019050612a48565b5050509392505050565b5f82601f830112612a8d57612a8c61275c565b5b8135612a9d848260208601612a11565b91505092915050565b5f67ffffffffffffffff821115612ac057612abf612774565b5b612ac982612764565b9050602081019050919050565b5f612ae8612ae384612aa6565b6127d2565b905082815260208101848484011115612b0457612b03612760565b5b612b0f84828561281c565b509392505050565b5f82601f830112612b2b57612b2a61275c565b5b8135612b3b848260208601612ad6565b91505092915050565b5f805f805f60a08688031215612b5d57612b5c6125ae565b5b5f612b6a888289016125fc565b9550506020612b7b888289016125fc565b945050604086013567ffffffffffffffff811115612b9c57612b9b6125b2565b5b612ba888828901612a79565b935050606086013567ffffffffffffffff811115612bc957612bc86125b2565b5b612bd588828901612a79565b925050608086013567ffffffffffffffff811115612bf657612bf56125b2565b5b612c0288828901612b17565b9150509295509295909350565b5f67ffffffffffffffff821115612c2957612c28612774565b5b602082029050602081019050919050565b5f612c4c612c4784612c0f565b6127d2565b90508083825260208201905060208402830185811115612c6f57612c6e612a0d565b5b835b81811015612c985780612c8488826125fc565b845260208401935050602081019050612c71565b5050509392505050565b5f82601f830112612cb657612cb561275c565b5b8135612cc6848260208601612c3a565b91505092915050565b5f8060408385031215612ce557612ce46125ae565b5b5f83013567ffffffffffffffff811115612d0257612d016125b2565b5b612d0e85828601612ca2565b925050602083013567ffffffffffffffff811115612d2f57612d2e6125b2565b5b612d3b85828601612a79565b9150509250929050565b5f81519050919050565b5f82825260208201905092915050565b5f819050602082019050919050565b612d7781612610565b82525050565b5f612d888383612d6e565b60208301905092915050565b5f602082019050919050565b5f612daa82612d45565b612db48185612d4f565b9350612dbf83612d5f565b805f5b83811015612def578151612dd68882612d7d565b9750612de183612d94565b925050600181019050612dc2565b5085935050505092915050565b5f6020820190508181035f830152612e148184612da0565b905092915050565b612e25816125d5565b82525050565b5f602082019050612e3e5f830184612e1c565b92915050565b612e4d81612729565b8114612e57575f80fd5b50565b5f81359050612e6881612e44565b92915050565b5f8060408385031215612e8457612e836125ae565b5b5f612e91858286016125fc565b9250506020612ea285828601612e5a565b9150509250929050565b5f8060408385031215612ec257612ec16125ae565b5b5f612ecf858286016125fc565b9250506020612ee0858286016125fc565b9150509250929050565b5f805f805f60a08688031215612f0357612f026125ae565b5b5f612f10888289016125fc565b9550506020612f21888289016125fc565b9450506040612f328882890161262f565b9350506060612f438882890161262f565b925050608086013567ffffffffffffffff811115612f6457612f636125b2565b5b612f7088828901612b17565b9150509295509295909350565b5f60208284031215612f9257612f916125ae565b5b5f612f9f848285016125fc565b91505092915050565b7f455243313135353a2061646472657373207a65726f206973206e6f74206120765f8201527f616c6964206f776e657200000000000000000000000000000000000000000000602082015250565b5f613002602a83612914565b915061300d82612fa8565b604082019050919050565b5f6020820190508181035f83015261302f81612ff6565b9050919050565b7f4e487b71000000000000000000000000000000000000000000000000000000005f52602260045260245ffd5b5f600282049050600182168061307a57607f821691505b60208210810361308d5761308c613036565b5b50919050565b7f4d696e74206973206f7665722e000000000000000000000000000000000000005f82015250565b5f6130c7600d83612914565b91506130d282613093565b602082019050919050565b5f6020820190508181035f8301526130f4816130bb565b9050919050565b7f546f6b656e20646f65736e27742065786973742e0000000000000000000000005f82015250565b5f61312f601483612914565b915061313a826130fb565b602082019050919050565b5f6020820190508181035f83015261315c81613123565b9050919050565b7f4e487b71000000000000000000000000000000000000000000000000000000005f52601160045260245ffd5b5f61319a82612610565b91506131a583612610565b92508282039050818111156131bd576131bc613163565b5b92915050565b7f4e487b71000000000000000000000000000000000000000000000000000000005f52603260045260245ffd5b5f6131fa82612610565b915061320583612610565b925082820190508082111561321d5761321c613163565b5b92915050565b7f4e6f7420656e6f75676820737570706c792100000000000000000000000000005f82015250565b5f613257601283612914565b915061326282613223565b602082019050919050565b5f6020820190508181035f8301526132848161324b565b9050919050565b5f61329582612610565b91506132a083612610565b92508282026132ae81612610565b915082820484148315176132c5576132c4613163565b5b5092915050565b7f4e6f7420656e6f75676820636f73742073656e742100000000000000000000005f82015250565b5f613300601583612914565b915061330b826132cc565b602082019050919050565b5f6020820190508181035f83015261332d816132f4565b9050919050565b7f455243313135353a2063616c6c6572206973206e6f7420746f6b656e206f776e5f8201527f6572206e6f7220617070726f7665640000000000000000000000000000000000602082015250565b5f61338e602f83612914565b915061339982613334565b604082019050919050565b5f6020820190508181035f8301526133bb81613382565b9050919050565b7f42616c616e6365206973207a65726f00000000000000000000000000000000005f82015250565b5f6133f6600f83612914565b9150613401826133c2565b602082019050919050565b5f6020820190508181035f830152613423816133ea565b9050919050565b5f69ffffffffffffffffffff82169050919050565b6134488161342a565b8114613452575f80fd5b50565b5f815190506134638161343f565b92915050565b5f819050919050565b61347b81613469565b8114613485575f80fd5b50565b5f8151905061349681613472565b92915050565b5f815190506134aa81612619565b92915050565b5f805f805f60a086880312156134c9576134c86125ae565b5b5f6134d688828901613455565b95505060206134e788828901613488565b94505060406134f88882890161349c565b93505060606135098882890161349c565b925050608061351a88828901613455565b9150509295509295909350565b7f4e487b71000000000000000000000000000000000000000000000000000000005f52601260045260245ffd5b5f61355e82612610565b915061356983612610565b92508261357957613578613527565b5b828204905092915050565b7f455243313135353a206163636f756e747320616e6420696473206c656e6774685f8201527f206d69736d617463680000000000000000000000000000000000000000000000602082015250565b5f6135de602983612914565b91506135e982613584565b604082019050919050565b5f6020820190508181035f83015261360b816135d2565b9050919050565b7f4f776e61626c653a206e6577206f776e657220697320746865207a65726f20615f8201527f6464726573730000000000000000000000000000000000000000000000000000602082015250565b5f61366c602683612914565b915061367782613612565b604082019050919050565b5f6020820190508181035f83015261369981613660565b9050919050565b7f4f776e61626c653a2063616c6c6572206973206e6f7420746865206f776e65725f82015250565b5f6136d4602083612914565b91506136df826136a0565b602082019050919050565b5f6020820190508181035f830152613701816136c8565b9050919050565b5f819050815f5260205f209050919050565b5f6020601f8301049050919050565b5f82821b905092915050565b5f600883026137647fffffffffffffffffffffffffffffffffffffffffffffffffffffffffffffffff82613729565b61376e8683613729565b95508019841693508086168417925050509392505050565b5f819050919050565b5f6137a96137a461379f84612610565b613786565b612610565b9050919050565b5f819050919050565b6137c28361378f565b6137d66137ce826137b0565b848454613735565b825550505050565b5f90565b6137ea6137de565b6137f58184846137b9565b505050565b5b818110156138185761380d5f826137e2565b6001810190506137fb565b5050565b601f82111561385d5761382e81613708565b6138378461371a565b81016020851015613846578190505b61385a6138528561371a565b8301826137fa565b50505b505050565b5f82821c905092915050565b5f61387d5f1984600802613862565b1980831691505092915050565b5f613895838361386e565b9150826002028217905092915050565b6138ae8261290a565b67ffffffffffffffff8111156138c7576138c6612774565b5b6138d18254613063565b6138dc82828561381c565b5f60209050601f83116001811461390d575f84156138fb578287015190505b613905858261388a565b86555061396c565b601f19841661391b86613708565b5f5b828110156139425784890151825560018201915060208501945060208101905061391d565b8683101561395f578489015161395b601f89168261386e565b8355505b6001600288020188555050505b505050505050565b7f455243313135353a206d696e7420746f20746865207a65726f206164647265735f8201527f7300000000000000000000000000000000000000000000000000000000000000602082015250565b5f6139ce602183612914565b91506139d982613974565b604082019050919050565b5f6020820190508181035f8301526139fb816139c2565b9050919050565b5f604082019050613a155f830185612681565b613a226020830184612681565b9392505050565b7f455243313135353a2069647320616e6420616d6f756e7473206c656e677468205f8201527f6d69736d61746368000000000000000000000000000000000000000000000000602082015250565b5f613a83602883612914565b9150613a8e82613a29565b604082019050919050565b5f6020820190508181035f830152613ab081613a77565b9050919050565b7f455243313135353a207472616e7366657220746f20746865207a65726f2061645f8201527f6472657373000000000000000000000000000000000000000000000000000000602082015250565b5f613b11602583612914565b9150613b1c82613ab7565b604082019050919050565b5f6020820190508181035f830152613b3e81613b05565b9050919050565b7f455243313135353a20696e73756666696369656e742062616c616e636520666f5f8201527f72207472616e7366657200000000000000000000000000000000000000000000602082015250565b5f613b9f602a83612914565b9150613baa82613b45565b604082019050919050565b5f6020820190508181035f830152613bcc81613b93565b9050919050565b5f6040820190508181035f830152613beb8185612da0565b90508181036020830152613bff8184612da0565b90509392505050565b7f455243313135353a2073657474696e6720617070726f76616c207374617475735f8201527f20666f722073656c660000000000000000000000000000000000000000000000602082015250565b5f613c62602983612914565b9150613c6d82613c08565b604082019050919050565b5f6020820190508181035f830152613c8f81613c56565b9050919050565b5f81519050919050565b5f82825260208201905092915050565b5f613cba82613c96565b613cc48185613ca0565b9350613cd4818560208601612924565b613cdd81612764565b840191505092915050565b5f60a082019050613cfb5f830188612e1c565b613d086020830187612e1c565b613d156040830186612681565b613d226060830185612681565b8181036080830152613d348184613cb0565b90509695505050505050565b5f81519050613d4e816126d4565b92915050565b5f60208284031215613d6957613d686125ae565b5b5f613d7684828501613d40565b91505092915050565b5f8160e01c9050919050565b5f60033d1115613da75760045f803e613da45f51613d7f565b90505b90565b5f60443d10613e3657613dbb6125a5565b60043d036004823e80513d602482011167ffffffffffffffff82111715613de3575050613e36565b808201805167ffffffffffffffff811115613e015750505050613e36565b80602083010160043d038501811115613e1e575050505050613e36565b613e2d826020018501866127a1565b82955050505050505b90565b7f455243313135353a207472616e7366657220746f206e6f6e20455243313135355f8201527f526563656976657220696d706c656d656e746572000000000000000000000000602082015250565b5f613e93603483612914565b9150613e9e82613e39565b604082019050919050565b5f6020820190508181035f830152613ec081613e87565b9050919050565b7f455243313135353a204552433131353552656365697665722072656a656374655f8201527f6420746f6b656e73000000000000000000000000000000000000000000000000602082015250565b5f613f21602883612914565b9150613f2c82613ec7565b604082019050919050565b5f6020820190508181035f830152613f4e81613f15565b9050919050565b5f60a082019050613f685f830188612e1c565b613f756020830187612e1c565b8181036040830152613f878186612da0565b90508181036060830152613f9b8185612da0565b90508181036080830152613faf8184613cb0565b90509695505050505050565b7f5061757361626c653a206e6f74207061757365640000000000000000000000005f82015250565b5f613fef601483612914565b9150613ffa82613fbb565b602082019050919050565b5f6020820190508181035f83015261401c81613fe3565b9050919050565b7f5061757361626c653a20706175736564000000000000000000000000000000005f82015250565b5f614057601083612914565b915061406282614023565b602082019050919050565b5f6020820190508181035f8301526140848161404b565b9050919050565b7f455243313135353a206275726e20616d6f756e74206578636565647320746f745f8201527f616c537570706c79000000000000000000000000000000000000000000000000602082015250565b5f6140e5602883612914565b91506140f08261408b565b604082019050919050565b5f6020820190508181035f830152614112816140d9565b905091905056fea26469706673582212207aba0cb0763fe769e9fcfa10ddb10e2903beae04f10470726f41d18a41328cac64736f6c63430008160033697066733a2f2f6261667962656966677a346c337466616f6a327a626478793363753578636c7a6b3462667532636d7270677a34717261786f796c76786e617764792f7b69647d2e6a736f6e",
  "immutableReferences": {},
  "source": "// File: @chainlink/contracts/src/v0.8/interfaces/AggregatorV3Interface.sol\r\n\r\npragma solidity ^0.8.0;\r\n\r\ninterface AggregatorV3Interface {\r\n    function decimals() external view returns (uint8);\r\n\r\n    function description() external view returns (string memory);\r\n\r\n    function version() external view returns (uint256);\r\n\r\n    // getRoundData and latestRoundData should both raise \"No data present\"\r\n    // if they do not have data to report, instead of returning unset values\r\n    // which could be misinterpreted as actual reported values.\r\n    function getRoundData(uint80 _roundId)\r\n        external\r\n        view\r\n        returns (\r\n            uint80 roundId,\r\n            int256 answer,\r\n            uint256 startedAt,\r\n            uint256 updatedAt,\r\n            uint80 answeredInRound\r\n        );\r\n\r\n    function latestRoundData()\r\n        external\r\n        view\r\n        returns (\r\n            uint80 roundId,\r\n            int256 answer,\r\n            uint256 startedAt,\r\n            uint256 updatedAt,\r\n            uint80 answeredInRound\r\n        );\r\n}\r\n\r\n// File: @openzeppelin/contracts/utils/Context.sol\r\n\r\n// OpenZeppelin Contracts v4.4.1 (utils/Context.sol)\r\n\r\npragma solidity ^0.8.0;\r\n\r\n/**\r\n * @dev Provides information about the current execution context, including the\r\n * sender of the transaction and its data. While these are generally available\r\n * via msg.sender and msg.data, they should not be accessed in such a direct\r\n * manner, since when dealing with meta-transactions the account sending and\r\n * paying for execution may not be the actual sender (as far as an application\r\n * is concerned).\r\n *\r\n * This contract is only required for intermediate, library-like contracts.\r\n */\r\nabstract contract Context {\r\n    function _msgSender() internal view virtual returns (address) {\r\n        return msg.sender;\r\n    }\r\n\r\n    function _msgData() internal view virtual returns (bytes calldata) {\r\n        return msg.data;\r\n    }\r\n}\r\n\r\n// File: @openzeppelin/contracts/security/Pausable.sol\r\n\r\n// OpenZeppelin Contracts (last updated v4.7.0) (security/Pausable.sol)\r\n\r\npragma solidity ^0.8.0;\r\n\r\n/**\r\n * @dev Contract module which allows children to implement an emergency stop\r\n * mechanism that can be triggered by an authorized account.\r\n *\r\n * This module is used through inheritance. It will make available the\r\n * modifiers `whenNotPaused` and `whenPaused`, which can be applied to\r\n * the functions of your contract. Note that they will not be pausable by\r\n * simply including this module, only once the modifiers are put in place.\r\n */\r\nabstract contract Pausable is Context {\r\n    /**\r\n     * @dev Emitted when the pause is triggered by `account`.\r\n     */\r\n    event Paused(address account);\r\n\r\n    /**\r\n     * @dev Emitted when the pause is lifted by `account`.\r\n     */\r\n    event Unpaused(address account);\r\n\r\n    bool private _paused;\r\n\r\n    /**\r\n     * @dev Initializes the contract in unpaused state.\r\n     */\r\n    constructor() {\r\n        _paused = false;\r\n    }\r\n\r\n    /**\r\n     * @dev Modifier to make a function callable only when the contract is not paused.\r\n     *\r\n     * Requirements:\r\n     *\r\n     * - The contract must not be paused.\r\n     */\r\n    modifier whenNotPaused() {\r\n        _requireNotPaused();\r\n        _;\r\n    }\r\n\r\n    /**\r\n     * @dev Modifier to make a function callable only when the contract is paused.\r\n     *\r\n     * Requirements:\r\n     *\r\n     * - The contract must be paused.\r\n     */\r\n    modifier whenPaused() {\r\n        _requirePaused();\r\n        _;\r\n    }\r\n\r\n    /**\r\n     * @dev Returns true if the contract is paused, and false otherwise.\r\n     */\r\n    function paused() public view virtual returns (bool) {\r\n        return _paused;\r\n    }\r\n\r\n    /**\r\n     * @dev Throws if the contract is paused.\r\n     */\r\n    function _requireNotPaused() internal view virtual {\r\n        require(!paused(), \"Pausable: paused\");\r\n    }\r\n\r\n    /**\r\n     * @dev Throws if the contract is not paused.\r\n     */\r\n    function _requirePaused() internal view virtual {\r\n        require(paused(), \"Pausable: not paused\");\r\n    }\r\n\r\n    /**\r\n     * @dev Triggers stopped state.\r\n     *\r\n     * Requirements:\r\n     *\r\n     * - The contract must not be paused.\r\n     */\r\n    function _pause() internal virtual whenNotPaused {\r\n        _paused = true;\r\n        emit Paused(_msgSender());\r\n    }\r\n\r\n    /**\r\n     * @dev Returns to normal state.\r\n     *\r\n     * Requirements:\r\n     *\r\n     * - The contract must be paused.\r\n     */\r\n    function _unpause() internal virtual whenPaused {\r\n        _paused = false;\r\n        emit Unpaused(_msgSender());\r\n    }\r\n}\r\n\r\n// File: @openzeppelin/contracts/access/Ownable.sol\r\n\r\n// OpenZeppelin Contracts (last updated v4.7.0) (access/Ownable.sol)\r\n\r\npragma solidity ^0.8.0;\r\n\r\n/**\r\n * @dev Contract module which provides a basic access control mechanism, where\r\n * there is an account (an owner) that can be granted exclusive access to\r\n * specific functions.\r\n *\r\n * By default, the owner account will be the one that deploys the contract. This\r\n * can later be changed with {transferOwnership}.\r\n *\r\n * This module is used through inheritance. It will make available the modifier\r\n * `onlyOwner`, which can be applied to your functions to restrict their use to\r\n * the owner.\r\n */\r\nabstract contract Ownable is Context {\r\n    address private _owner;\r\n\r\n    event OwnershipTransferred(\r\n        address indexed previousOwner,\r\n        address indexed newOwner\r\n    );\r\n\r\n    /**\r\n     * @dev Initializes the contract setting the deployer as the initial owner.\r\n     */\r\n    constructor() {\r\n        _transferOwnership(_msgSender());\r\n    }\r\n\r\n    /**\r\n     * @dev Throws if called by any account other than the owner.\r\n     */\r\n    modifier onlyOwner() {\r\n        _checkOwner();\r\n        _;\r\n    }\r\n\r\n    /**\r\n     * @dev Returns the address of the current owner.\r\n     */\r\n    function owner() public view virtual returns (address) {\r\n        return _owner;\r\n    }\r\n\r\n    /**\r\n     * @dev Throws if the sender is not the owner.\r\n     */\r\n    function _checkOwner() internal view virtual {\r\n        require(owner() == _msgSender(), \"Ownable: caller is not the owner\");\r\n    }\r\n\r\n    /**\r\n     * @dev Leaves the contract without owner. It will not be possible to call\r\n     * `onlyOwner` functions anymore. Can only be called by the current owner.\r\n     *\r\n     * NOTE: Renouncing ownership will leave the contract without an owner,\r\n     * thereby removing any functionality that is only available to the owner.\r\n     */\r\n    function renounceOwnership() public virtual onlyOwner {\r\n        _transferOwnership(address(0));\r\n    }\r\n\r\n    /**\r\n     * @dev Transfers ownership of the contract to a new account (`newOwner`).\r\n     * Can only be called by the current owner.\r\n     */\r\n    function transferOwnership(address newOwner) public virtual onlyOwner {\r\n        require(\r\n            newOwner != address(0),\r\n            \"Ownable: new owner is the zero address\"\r\n        );\r\n        _transferOwnership(newOwner);\r\n    }\r\n\r\n    /**\r\n     * @dev Transfers ownership of the contract to a new account (`newOwner`).\r\n     * Internal function without access restriction.\r\n     */\r\n    function _transferOwnership(address newOwner) internal virtual {\r\n        address oldOwner = _owner;\r\n        _owner = newOwner;\r\n        emit OwnershipTransferred(oldOwner, newOwner);\r\n    }\r\n}\r\n\r\n// File: @openzeppelin/contracts/utils/Address.sol\r\n\r\n// OpenZeppelin Contracts (last updated v4.7.0) (utils/Address.sol)\r\n\r\npragma solidity ^0.8.1;\r\n\r\n/**\r\n * @dev Collection of functions related to the address type\r\n */\r\nlibrary Address {\r\n    /**\r\n     * @dev Returns true if `account` is a contract.\r\n     *\r\n     * [IMPORTANT]\r\n     * ====\r\n     * It is unsafe to assume that an address for which this function returns\r\n     * false is an externally-owned account (EOA) and not a contract.\r\n     *\r\n     * Among others, `isContract` will return false for the following\r\n     * types of addresses:\r\n     *\r\n     *  - an externally-owned account\r\n     *  - a contract in construction\r\n     *  - an address where a contract will be created\r\n     *  - an address where a contract lived, but was destroyed\r\n     * ====\r\n     *\r\n     * [IMPORTANT]\r\n     * ====\r\n     * You shouldn't rely on `isContract` to protect against flash loan attacks!\r\n     *\r\n     * Preventing calls from contracts is highly discouraged. It breaks composability, breaks support for smart wallets\r\n     * like Gnosis Safe, and does not provide security since it can be circumvented by calling from a contract\r\n     * constructor.\r\n     * ====\r\n     */\r\n    function isContract(address account) internal view returns (bool) {\r\n        // This method relies on extcodesize/address.code.length, which returns 0\r\n        // for contracts in construction, since the code is only stored at the end\r\n        // of the constructor execution.\r\n\r\n        return account.code.length > 0;\r\n    }\r\n\r\n    /**\r\n     * @dev Replacement for Solidity's `transfer`: sends `amount` wei to\r\n     * `recipient`, forwarding all available gas and reverting on errors.\r\n     *\r\n     * https://eips.ethereum.org/EIPS/eip-1884[EIP1884] increases the gas cost\r\n     * of certain opcodes, possibly making contracts go over the 2300 gas limit\r\n     * imposed by `transfer`, making them unable to receive funds via\r\n     * `transfer`. {sendValue} removes this limitation.\r\n     *\r\n     * https://diligence.consensys.net/posts/2019/09/stop-using-soliditys-transfer-now/[Learn more].\r\n     *\r\n     * IMPORTANT: because control is transferred to `recipient`, care must be\r\n     * taken to not create reentrancy vulnerabilities. Consider using\r\n     * {ReentrancyGuard} or the\r\n     * https://solidity.readthedocs.io/en/v0.5.11/security-considerations.html#use-the-checks-effects-interactions-pattern[checks-effects-interactions pattern].\r\n     */\r\n    function sendValue(address payable recipient, uint256 amount) internal {\r\n        require(\r\n            address(this).balance >= amount,\r\n            \"Address: insufficient balance\"\r\n        );\r\n\r\n        (bool success, ) = recipient.call{value: amount}(\"\");\r\n        require(\r\n            success,\r\n            \"Address: unable to send value, recipient may have reverted\"\r\n        );\r\n    }\r\n\r\n    /**\r\n     * @dev Performs a Solidity function call using a low level `call`. A\r\n     * plain `call` is an unsafe replacement for a function call: use this\r\n     * function instead.\r\n     *\r\n     * If `target` reverts with a revert reason, it is bubbled up by this\r\n     * function (like regular Solidity function calls).\r\n     *\r\n     * Returns the raw returned data. To convert to the expected return value,\r\n     * use https://solidity.readthedocs.io/en/latest/units-and-global-variables.html?highlight=abi.decode#abi-encoding-and-decoding-functions[`abi.decode`].\r\n     *\r\n     * Requirements:\r\n     *\r\n     * - `target` must be a contract.\r\n     * - calling `target` with `data` must not revert.\r\n     *\r\n     * _Available since v3.1._\r\n     */\r\n    function functionCall(address target, bytes memory data)\r\n        internal\r\n        returns (bytes memory)\r\n    {\r\n        return functionCall(target, data, \"Address: low-level call failed\");\r\n    }\r\n\r\n    /**\r\n     * @dev Same as {xref-Address-functionCall-address-bytes-}[`functionCall`], but with\r\n     * `errorMessage` as a fallback revert reason when `target` reverts.\r\n     *\r\n     * _Available since v3.1._\r\n     */\r\n    function functionCall(\r\n        address target,\r\n        bytes memory data,\r\n        string memory errorMessage\r\n    ) internal returns (bytes memory) {\r\n        return functionCallWithValue(target, data, 0, errorMessage);\r\n    }\r\n\r\n    /**\r\n     * @dev Same as {xref-Address-functionCall-address-bytes-}[`functionCall`],\r\n     * but also transferring `value` wei to `target`.\r\n     *\r\n     * Requirements:\r\n     *\r\n     * - the calling contract must have an ETH balance of at least `value`.\r\n     * - the called Solidity function must be `payable`.\r\n     *\r\n     * _Available since v3.1._\r\n     */\r\n    function functionCallWithValue(\r\n        address target,\r\n        bytes memory data,\r\n        uint256 value\r\n    ) internal returns (bytes memory) {\r\n        return\r\n            functionCallWithValue(\r\n                target,\r\n                data,\r\n                value,\r\n                \"Address: low-level call with value failed\"\r\n            );\r\n    }\r\n\r\n    /**\r\n     * @dev Same as {xref-Address-functionCallWithValue-address-bytes-uint256-}[`functionCallWithValue`], but\r\n     * with `errorMessage` as a fallback revert reason when `target` reverts.\r\n     *\r\n     * _Available since v3.1._\r\n     */\r\n    function functionCallWithValue(\r\n        address target,\r\n        bytes memory data,\r\n        uint256 value,\r\n        string memory errorMessage\r\n    ) internal returns (bytes memory) {\r\n        require(\r\n            address(this).balance >= value,\r\n            \"Address: insufficient balance for call\"\r\n        );\r\n        require(isContract(target), \"Address: call to non-contract\");\r\n\r\n        (bool success, bytes memory returndata) = target.call{value: value}(\r\n            data\r\n        );\r\n        return verifyCallResult(success, returndata, errorMessage);\r\n    }\r\n\r\n    /**\r\n     * @dev Same as {xref-Address-functionCall-address-bytes-}[`functionCall`],\r\n     * but performing a static call.\r\n     *\r\n     * _Available since v3.3._\r\n     */\r\n    function functionStaticCall(address target, bytes memory data)\r\n        internal\r\n        view\r\n        returns (bytes memory)\r\n    {\r\n        return\r\n            functionStaticCall(\r\n                target,\r\n                data,\r\n                \"Address: low-level static call failed\"\r\n            );\r\n    }\r\n\r\n    /**\r\n     * @dev Same as {xref-Address-functionCall-address-bytes-string-}[`functionCall`],\r\n     * but performing a static call.\r\n     *\r\n     * _Available since v3.3._\r\n     */\r\n    function functionStaticCall(\r\n        address target,\r\n        bytes memory data,\r\n        string memory errorMessage\r\n    ) internal view returns (bytes memory) {\r\n        require(isContract(target), \"Address: static call to non-contract\");\r\n\r\n        (bool success, bytes memory returndata) = target.staticcall(data);\r\n        return verifyCallResult(success, returndata, errorMessage);\r\n    }\r\n\r\n    /**\r\n     * @dev Same as {xref-Address-functionCall-address-bytes-}[`functionCall`],\r\n     * but performing a delegate call.\r\n     *\r\n     * _Available since v3.4._\r\n     */\r\n    function functionDelegateCall(address target, bytes memory data)\r\n        internal\r\n        returns (bytes memory)\r\n    {\r\n        return\r\n            functionDelegateCall(\r\n                target,\r\n                data,\r\n                \"Address: low-level delegate call failed\"\r\n            );\r\n    }\r\n\r\n    /**\r\n     * @dev Same as {xref-Address-functionCall-address-bytes-string-}[`functionCall`],\r\n     * but performing a delegate call.\r\n     *\r\n     * _Available since v3.4._\r\n     */\r\n    function functionDelegateCall(\r\n        address target,\r\n        bytes memory data,\r\n        string memory errorMessage\r\n    ) internal returns (bytes memory) {\r\n        require(isContract(target), \"Address: delegate call to non-contract\");\r\n\r\n        (bool success, bytes memory returndata) = target.delegatecall(data);\r\n        return verifyCallResult(success, returndata, errorMessage);\r\n    }\r\n\r\n    /**\r\n     * @dev Tool to verifies that a low level call was successful, and revert if it wasn't, either by bubbling the\r\n     * revert reason using the provided one.\r\n     *\r\n     * _Available since v4.3._\r\n     */\r\n    function verifyCallResult(\r\n        bool success,\r\n        bytes memory returndata,\r\n        string memory errorMessage\r\n    ) internal pure returns (bytes memory) {\r\n        if (success) {\r\n            return returndata;\r\n        } else {\r\n            // Look for revert reason and bubble it up if present\r\n            if (returndata.length > 0) {\r\n                // The easiest way to bubble the revert reason is using memory via assembly\r\n                /// @solidity memory-safe-assembly\r\n                assembly {\r\n                    let returndata_size := mload(returndata)\r\n                    revert(add(32, returndata), returndata_size)\r\n                }\r\n            } else {\r\n                revert(errorMessage);\r\n            }\r\n        }\r\n    }\r\n}\r\n\r\n// File: @openzeppelin/contracts/utils/introspection/IERC165.sol\r\n\r\n// OpenZeppelin Contracts v4.4.1 (utils/introspection/IERC165.sol)\r\n\r\npragma solidity ^0.8.0;\r\n\r\n/**\r\n * @dev Interface of the ERC165 standard, as defined in the\r\n * https://eips.ethereum.org/EIPS/eip-165[EIP].\r\n *\r\n * Implementers can declare support of contract interfaces, which can then be\r\n * queried by others ({ERC165Checker}).\r\n *\r\n * For an implementation, see {ERC165}.\r\n */\r\ninterface IERC165 {\r\n    /**\r\n     * @dev Returns true if this contract implements the interface defined by\r\n     * `interfaceId`. See the corresponding\r\n     * https://eips.ethereum.org/EIPS/eip-165#how-interfaces-are-identified[EIP section]\r\n     * to learn more about how these ids are created.\r\n     *\r\n     * This function call must use less than 30 000 gas.\r\n     */\r\n    function supportsInterface(bytes4 interfaceId) external view returns (bool);\r\n}\r\n\r\n// File: @openzeppelin/contracts/utils/introspection/ERC165.sol\r\n\r\n// OpenZeppelin Contracts v4.4.1 (utils/introspection/ERC165.sol)\r\n\r\npragma solidity ^0.8.0;\r\n\r\n/**\r\n * @dev Implementation of the {IERC165} interface.\r\n *\r\n * Contracts that want to implement ERC165 should inherit from this contract and override {supportsInterface} to check\r\n * for the additional interface id that will be supported. For example:\r\n *\r\n * ```solidity\r\n * function supportsInterface(bytes4 interfaceId) public view virtual override returns (bool) {\r\n *     return interfaceId == type(MyInterface).interfaceId || super.supportsInterface(interfaceId);\r\n * }\r\n * ```\r\n *\r\n * Alternatively, {ERC165Storage} provides an easier to use but more expensive implementation.\r\n */\r\nabstract contract ERC165 is IERC165 {\r\n    /**\r\n     * @dev See {IERC165-supportsInterface}.\r\n     */\r\n    function supportsInterface(bytes4 interfaceId)\r\n        public\r\n        view\r\n        virtual\r\n        override\r\n        returns (bool)\r\n    {\r\n        return interfaceId == type(IERC165).interfaceId;\r\n    }\r\n}\r\n\r\n// File: @openzeppelin/contracts/token/ERC1155/IERC1155Receiver.sol\r\n\r\n// OpenZeppelin Contracts (last updated v4.5.0) (token/ERC1155/IERC1155Receiver.sol)\r\n\r\npragma solidity ^0.8.0;\r\n\r\n/**\r\n * @dev _Available since v3.1._\r\n */\r\ninterface IERC1155Receiver is IERC165 {\r\n    /**\r\n     * @dev Handles the receipt of a single ERC1155 token type. This function is\r\n     * called at the end of a `safeTransferFrom` after the balance has been updated.\r\n     *\r\n     * NOTE: To accept the transfer, this must return\r\n     * `bytes4(keccak256(\"onERC1155Received(address,address,uint256,uint256,bytes)\"))`\r\n     * (i.e. 0xf23a6e61, or its own function selector).\r\n     *\r\n     * @param operator The address which initiated the transfer (i.e. msg.sender)\r\n     * @param from The address which previously owned the token\r\n     * @param id The ID of the token being transferred\r\n     * @param value The amount of tokens being transferred\r\n     * @param data Additional data with no specified format\r\n     * @return `bytes4(keccak256(\"onERC1155Received(address,address,uint256,uint256,bytes)\"))` if transfer is allowed\r\n     */\r\n    function onERC1155Received(\r\n        address operator,\r\n        address from,\r\n        uint256 id,\r\n        uint256 value,\r\n        bytes calldata data\r\n    ) external returns (bytes4);\r\n\r\n    /**\r\n     * @dev Handles the receipt of a multiple ERC1155 token types. This function\r\n     * is called at the end of a `safeBatchTransferFrom` after the balances have\r\n     * been updated.\r\n     *\r\n     * NOTE: To accept the transfer(s), this must return\r\n     * `bytes4(keccak256(\"onERC1155BatchReceived(address,address,uint256[],uint256[],bytes)\"))`\r\n     * (i.e. 0xbc197c81, or its own function selector).\r\n     *\r\n     * @param operator The address which initiated the batch transfer (i.e. msg.sender)\r\n     * @param from The address which previously owned the token\r\n     * @param ids An array containing ids of each token being transferred (order and length must match values array)\r\n     * @param values An array containing amounts of each token being transferred (order and length must match ids array)\r\n     * @param data Additional data with no specified format\r\n     * @return `bytes4(keccak256(\"onERC1155BatchReceived(address,address,uint256[],uint256[],bytes)\"))` if transfer is allowed\r\n     */\r\n    function onERC1155BatchReceived(\r\n        address operator,\r\n        address from,\r\n        uint256[] calldata ids,\r\n        uint256[] calldata values,\r\n        bytes calldata data\r\n    ) external returns (bytes4);\r\n}\r\n\r\n// File: @openzeppelin/contracts/token/ERC1155/IERC1155.sol\r\n\r\n// OpenZeppelin Contracts (last updated v4.7.0) (token/ERC1155/IERC1155.sol)\r\n\r\npragma solidity ^0.8.0;\r\n\r\n/**\r\n * @dev Required interface of an ERC1155 compliant contract, as defined in the\r\n * https://eips.ethereum.org/EIPS/eip-1155[EIP].\r\n *\r\n * _Available since v3.1._\r\n */\r\ninterface IERC1155 is IERC165 {\r\n    /**\r\n     * @dev Emitted when `value` tokens of token type `id` are transferred from `from` to `to` by `operator`.\r\n     */\r\n    event TransferSingle(\r\n        address indexed operator,\r\n        address indexed from,\r\n        address indexed to,\r\n        uint256 id,\r\n        uint256 value\r\n    );\r\n\r\n    /**\r\n     * @dev Equivalent to multiple {TransferSingle} events, where `operator`, `from` and `to` are the same for all\r\n     * transfers.\r\n     */\r\n    event TransferBatch(\r\n        address indexed operator,\r\n        address indexed from,\r\n        address indexed to,\r\n        uint256[] ids,\r\n        uint256[] values\r\n    );\r\n\r\n    /**\r\n     * @dev Emitted when `account` grants or revokes permission to `operator` to transfer their tokens, according to\r\n     * `approved`.\r\n     */\r\n    event ApprovalForAll(\r\n        address indexed account,\r\n        address indexed operator,\r\n        bool approved\r\n    );\r\n\r\n    /**\r\n     * @dev Emitted when the URI for token type `id` changes to `value`, if it is a non-programmatic URI.\r\n     *\r\n     * If an {URI} event was emitted for `id`, the standard\r\n     * https://eips.ethereum.org/EIPS/eip-1155#metadata-extensions[guarantees] that `value` will equal the value\r\n     * returned by {IERC1155MetadataURI-uri}.\r\n     */\r\n    event URI(string value, uint256 indexed id);\r\n\r\n    /**\r\n     * @dev Returns the amount of tokens of token type `id` owned by `account`.\r\n     *\r\n     * Requirements:\r\n     *\r\n     * - `account` cannot be the zero address.\r\n     */\r\n    function balanceOf(address account, uint256 id)\r\n        external\r\n        view\r\n        returns (uint256);\r\n\r\n    /**\r\n     * @dev xref:ROOT:erc1155.adoc#batch-operations[Batched] version of {balanceOf}.\r\n     *\r\n     * Requirements:\r\n     *\r\n     * - `accounts` and `ids` must have the same length.\r\n     */\r\n    function balanceOfBatch(address[] calldata accounts, uint256[] calldata ids)\r\n        external\r\n        view\r\n        returns (uint256[] memory);\r\n\r\n    /**\r\n     * @dev Grants or revokes permission to `operator` to transfer the caller's tokens, according to `approved`,\r\n     *\r\n     * Emits an {ApprovalForAll} event.\r\n     *\r\n     * Requirements:\r\n     *\r\n     * - `operator` cannot be the caller.\r\n     */\r\n    function setApprovalForAll(address operator, bool approved) external;\r\n\r\n    /**\r\n     * @dev Returns true if `operator` is approved to transfer ``account``'s tokens.\r\n     *\r\n     * See {setApprovalForAll}.\r\n     */\r\n    function isApprovedForAll(address account, address operator)\r\n        external\r\n        view\r\n        returns (bool);\r\n\r\n    /**\r\n     * @dev Transfers `amount` tokens of token type `id` from `from` to `to`.\r\n     *\r\n     * Emits a {TransferSingle} event.\r\n     *\r\n     * Requirements:\r\n     *\r\n     * - `to` cannot be the zero address.\r\n     * - If the caller is not `from`, it must have been approved to spend ``from``'s tokens via {setApprovalForAll}.\r\n     * - `from` must have a balance of tokens of type `id` of at least `amount`.\r\n     * - If `to` refers to a smart contract, it must implement {IERC1155Receiver-onERC1155Received} and return the\r\n     * acceptance magic value.\r\n     */\r\n    function safeTransferFrom(\r\n        address from,\r\n        address to,\r\n        uint256 id,\r\n        uint256 amount,\r\n        bytes calldata data\r\n    ) external;\r\n\r\n    /**\r\n     * @dev xref:ROOT:erc1155.adoc#batch-operations[Batched] version of {safeTransferFrom}.\r\n     *\r\n     * Emits a {TransferBatch} event.\r\n     *\r\n     * Requirements:\r\n     *\r\n     * - `ids` and `amounts` must have the same length.\r\n     * - If `to` refers to a smart contract, it must implement {IERC1155Receiver-onERC1155BatchReceived} and return the\r\n     * acceptance magic value.\r\n     */\r\n    function safeBatchTransferFrom(\r\n        address from,\r\n        address to,\r\n        uint256[] calldata ids,\r\n        uint256[] calldata amounts,\r\n        bytes calldata data\r\n    ) external;\r\n}\r\n\r\n// File: @openzeppelin/contracts/token/ERC1155/extensions/IERC1155MetadataURI.sol\r\n\r\n// OpenZeppelin Contracts v4.4.1 (token/ERC1155/extensions/IERC1155MetadataURI.sol)\r\n\r\npragma solidity ^0.8.0;\r\n\r\n/**\r\n * @dev Interface of the optional ERC1155MetadataExtension interface, as defined\r\n * in the https://eips.ethereum.org/EIPS/eip-1155#metadata-extensions[EIP].\r\n *\r\n * _Available since v3.1._\r\n */\r\ninterface IERC1155MetadataURI is IERC1155 {\r\n    /**\r\n     * @dev Returns the URI for token type `id`.\r\n     *\r\n     * If the `\\{id\\}` substring is present in the URI, it must be replaced by\r\n     * clients with the actual token type ID.\r\n     */\r\n    function uri(uint256 id) external view returns (string memory);\r\n}\r\n\r\n// File: @openzeppelin/contracts/token/ERC1155/ERC1155.sol\r\n\r\n// OpenZeppelin Contracts (last updated v4.7.0) (token/ERC1155/ERC1155.sol)\r\n\r\npragma solidity ^0.8.0;\r\n\r\n/**\r\n * @dev Implementation of the basic standard multi-token.\r\n * See https://eips.ethereum.org/EIPS/eip-1155\r\n * Originally based on code by Enjin: https://github.com/enjin/erc-1155\r\n *\r\n * _Available since v3.1._\r\n */\r\ncontract ERC1155 is Context, ERC165, IERC1155, IERC1155MetadataURI {\r\n    using Address for address;\r\n\r\n    // Mapping from token ID to account balances\r\n    mapping(uint256 => mapping(address => uint256)) private _balances;\r\n\r\n    // Mapping from account to operator approvals\r\n    mapping(address => mapping(address => bool)) private _operatorApprovals;\r\n\r\n    // Used as the URI for all token types by relying on ID substitution, e.g. https://token-cdn-domain/{id}.json\r\n    string private _uri;\r\n\r\n    /**\r\n     * @dev See {_setURI}.\r\n     */\r\n    constructor(string memory uri_) {\r\n        _setURI(uri_);\r\n    }\r\n\r\n    /**\r\n     * @dev See {IERC165-supportsInterface}.\r\n     */\r\n    function supportsInterface(bytes4 interfaceId)\r\n        public\r\n        view\r\n        virtual\r\n        override(ERC165, IERC165)\r\n        returns (bool)\r\n    {\r\n        return\r\n            interfaceId == type(IERC1155).interfaceId ||\r\n            interfaceId == type(IERC1155MetadataURI).interfaceId ||\r\n            super.supportsInterface(interfaceId);\r\n    }\r\n\r\n    /**\r\n     * @dev See {IERC1155MetadataURI-uri}.\r\n     *\r\n     * This implementation returns the same URI for *all* token types. It relies\r\n     * on the token type ID substitution mechanism\r\n     * https://eips.ethereum.org/EIPS/eip-1155#metadata[defined in the EIP].\r\n     *\r\n     * Clients calling this function must replace the `\\{id\\}` substring with the\r\n     * actual token type ID.\r\n     */\r\n    function uri(uint256) public view virtual override returns (string memory) {\r\n        return _uri;\r\n    }\r\n\r\n    /**\r\n     * @dev See {IERC1155-balanceOf}.\r\n     *\r\n     * Requirements:\r\n     *\r\n     * - `account` cannot be the zero address.\r\n     */\r\n    function balanceOf(address account, uint256 id)\r\n        public\r\n        view\r\n        virtual\r\n        override\r\n        returns (uint256)\r\n    {\r\n        require(\r\n            account != address(0),\r\n            \"ERC1155: address zero is not a valid owner\"\r\n        );\r\n        return _balances[id][account];\r\n    }\r\n\r\n    /**\r\n     * @dev See {IERC1155-balanceOfBatch}.\r\n     *\r\n     * Requirements:\r\n     *\r\n     * - `accounts` and `ids` must have the same length.\r\n     */\r\n    function balanceOfBatch(address[] memory accounts, uint256[] memory ids)\r\n        public\r\n        view\r\n        virtual\r\n        override\r\n        returns (uint256[] memory)\r\n    {\r\n        require(\r\n            accounts.length == ids.length,\r\n            \"ERC1155: accounts and ids length mismatch\"\r\n        );\r\n\r\n        uint256[] memory batchBalances = new uint256[](accounts.length);\r\n\r\n        for (uint256 i = 0; i < accounts.length; ++i) {\r\n            batchBalances[i] = balanceOf(accounts[i], ids[i]);\r\n        }\r\n\r\n        return batchBalances;\r\n    }\r\n\r\n    /**\r\n     * @dev See {IERC1155-setApprovalForAll}.\r\n     */\r\n    function setApprovalForAll(address operator, bool approved)\r\n        public\r\n        virtual\r\n        override\r\n    {\r\n        _setApprovalForAll(_msgSender(), operator, approved);\r\n    }\r\n\r\n    /**\r\n     * @dev See {IERC1155-isApprovedForAll}.\r\n     */\r\n    function isApprovedForAll(address account, address operator)\r\n        public\r\n        view\r\n        virtual\r\n        override\r\n        returns (bool)\r\n    {\r\n        return _operatorApprovals[account][operator];\r\n    }\r\n\r\n    /**\r\n     * @dev See {IERC1155-safeTransferFrom}.\r\n     */\r\n    function safeTransferFrom(\r\n        address from,\r\n        address to,\r\n        uint256 id,\r\n        uint256 amount,\r\n        bytes memory data\r\n    ) public virtual override {\r\n        require(\r\n            from == _msgSender() || isApprovedForAll(from, _msgSender()),\r\n            \"ERC1155: caller is not token owner nor approved\"\r\n        );\r\n        _safeTransferFrom(from, to, id, amount, data);\r\n    }\r\n\r\n    /**\r\n     * @dev See {IERC1155-safeBatchTransferFrom}.\r\n     */\r\n    function safeBatchTransferFrom(\r\n        address from,\r\n        address to,\r\n        uint256[] memory ids,\r\n        uint256[] memory amounts,\r\n        bytes memory data\r\n    ) public virtual override {\r\n        require(\r\n            from == _msgSender() || isApprovedForAll(from, _msgSender()),\r\n            \"ERC1155: caller is not token owner nor approved\"\r\n        );\r\n        _safeBatchTransferFrom(from, to, ids, amounts, data);\r\n    }\r\n\r\n    /**\r\n     * @dev Transfers `amount` tokens of token type `id` from `from` to `to`.\r\n     *\r\n     * Emits a {TransferSingle} event.\r\n     *\r\n     * Requirements:\r\n     *\r\n     * - `to` cannot be the zero address.\r\n     * - `from` must have a balance of tokens of type `id` of at least `amount`.\r\n     * - If `to` refers to a smart contract, it must implement {IERC1155Receiver-onERC1155Received} and return the\r\n     * acceptance magic value.\r\n     */\r\n    function _safeTransferFrom(\r\n        address from,\r\n        address to,\r\n        uint256 id,\r\n        uint256 amount,\r\n        bytes memory data\r\n    ) internal virtual {\r\n        require(to != address(0), \"ERC1155: transfer to the zero address\");\r\n\r\n        address operator = _msgSender();\r\n        uint256[] memory ids = _asSingletonArray(id);\r\n        uint256[] memory amounts = _asSingletonArray(amount);\r\n\r\n        _beforeTokenTransfer(operator, from, to, ids, amounts, data);\r\n\r\n        uint256 fromBalance = _balances[id][from];\r\n        require(\r\n            fromBalance >= amount,\r\n            \"ERC1155: insufficient balance for transfer\"\r\n        );\r\n        unchecked {\r\n            _balances[id][from] = fromBalance - amount;\r\n        }\r\n        _balances[id][to] += amount;\r\n\r\n        emit TransferSingle(operator, from, to, id, amount);\r\n\r\n        _afterTokenTransfer(operator, from, to, ids, amounts, data);\r\n\r\n        _doSafeTransferAcceptanceCheck(operator, from, to, id, amount, data);\r\n    }\r\n\r\n    /**\r\n     * @dev xref:ROOT:erc1155.adoc#batch-operations[Batched] version of {_safeTransferFrom}.\r\n     *\r\n     * Emits a {TransferBatch} event.\r\n     *\r\n     * Requirements:\r\n     *\r\n     * - If `to` refers to a smart contract, it must implement {IERC1155Receiver-onERC1155BatchReceived} and return the\r\n     * acceptance magic value.\r\n     */\r\n    function _safeBatchTransferFrom(\r\n        address from,\r\n        address to,\r\n        uint256[] memory ids,\r\n        uint256[] memory amounts,\r\n        bytes memory data\r\n    ) internal virtual {\r\n        require(\r\n            ids.length == amounts.length,\r\n            \"ERC1155: ids and amounts length mismatch\"\r\n        );\r\n        require(to != address(0), \"ERC1155: transfer to the zero address\");\r\n\r\n        address operator = _msgSender();\r\n\r\n        _beforeTokenTransfer(operator, from, to, ids, amounts, data);\r\n\r\n        for (uint256 i = 0; i < ids.length; ++i) {\r\n            uint256 id = ids[i];\r\n            uint256 amount = amounts[i];\r\n\r\n            uint256 fromBalance = _balances[id][from];\r\n            require(\r\n                fromBalance >= amount,\r\n                \"ERC1155: insufficient balance for transfer\"\r\n            );\r\n            unchecked {\r\n                _balances[id][from] = fromBalance - amount;\r\n            }\r\n            _balances[id][to] += amount;\r\n        }\r\n\r\n        emit TransferBatch(operator, from, to, ids, amounts);\r\n\r\n        _afterTokenTransfer(operator, from, to, ids, amounts, data);\r\n\r\n        _doSafeBatchTransferAcceptanceCheck(\r\n            operator,\r\n            from,\r\n            to,\r\n            ids,\r\n            amounts,\r\n            data\r\n        );\r\n    }\r\n\r\n    /**\r\n     * @dev Sets a new URI for all token types, by relying on the token type ID\r\n     * substitution mechanism\r\n     * https://eips.ethereum.org/EIPS/eip-1155#metadata[defined in the EIP].\r\n     *\r\n     * By this mechanism, any occurrence of the `\\{id\\}` substring in either the\r\n     * URI or any of the amounts in the JSON file at said URI will be replaced by\r\n     * clients with the token type ID.\r\n     *\r\n     * For example, the `https://token-cdn-domain/\\{id\\}.json` URI would be\r\n     * interpreted by clients as\r\n     * `https://token-cdn-domain/000000000000000000000000000000000000000000000000000000000004cce0.json`\r\n     * for token type ID 0x4cce0.\r\n     *\r\n     * See {uri}.\r\n     *\r\n     * Because these URIs cannot be meaningfully represented by the {URI} event,\r\n     * this function emits no events.\r\n     */\r\n    function _setURI(string memory newuri) internal virtual {\r\n        _uri = newuri;\r\n    }\r\n\r\n    /**\r\n     * @dev Creates `amount` tokens of token type `id`, and assigns them to `to`.\r\n     *\r\n     * Emits a {TransferSingle} event.\r\n     *\r\n     * Requirements:\r\n     *\r\n     * - `to` cannot be the zero address.\r\n     * - If `to` refers to a smart contract, it must implement {IERC1155Receiver-onERC1155Received} and return the\r\n     * acceptance magic value.\r\n     */\r\n    function _mint(\r\n        address to,\r\n        uint256 id,\r\n        uint256 amount,\r\n        bytes memory data\r\n    ) internal virtual {\r\n        require(to != address(0), \"ERC1155: mint to the zero address\");\r\n\r\n        address operator = _msgSender();\r\n        uint256[] memory ids = _asSingletonArray(id);\r\n        uint256[] memory amounts = _asSingletonArray(amount);\r\n\r\n        _beforeTokenTransfer(operator, address(0), to, ids, amounts, data);\r\n\r\n        _balances[id][to] += amount;\r\n        emit TransferSingle(operator, address(0), to, id, amount);\r\n\r\n        _afterTokenTransfer(operator, address(0), to, ids, amounts, data);\r\n\r\n        _doSafeTransferAcceptanceCheck(\r\n            operator,\r\n            address(0),\r\n            to,\r\n            id,\r\n            amount,\r\n            data\r\n        );\r\n    }\r\n\r\n    /**\r\n     * @dev xref:ROOT:erc1155.adoc#batch-operations[Batched] version of {_mint}.\r\n     *\r\n     * Emits a {TransferBatch} event.\r\n     *\r\n     * Requirements:\r\n     *\r\n     * - `ids` and `amounts` must have the same length.\r\n     * - If `to` refers to a smart contract, it must implement {IERC1155Receiver-onERC1155BatchReceived} and return the\r\n     * acceptance magic value.\r\n     */\r\n    function _mintBatch(\r\n        address to,\r\n        uint256[] memory ids,\r\n        uint256[] memory amounts,\r\n        bytes memory data\r\n    ) internal virtual {\r\n        require(to != address(0), \"ERC1155: mint to the zero address\");\r\n        require(\r\n            ids.length == amounts.length,\r\n            \"ERC1155: ids and amounts length mismatch\"\r\n        );\r\n\r\n        address operator = _msgSender();\r\n\r\n        _beforeTokenTransfer(operator, address(0), to, ids, amounts, data);\r\n\r\n        for (uint256 i = 0; i < ids.length; i++) {\r\n            _balances[ids[i]][to] += amounts[i];\r\n        }\r\n\r\n        emit TransferBatch(operator, address(0), to, ids, amounts);\r\n\r\n        _afterTokenTransfer(operator, address(0), to, ids, amounts, data);\r\n\r\n        _doSafeBatchTransferAcceptanceCheck(\r\n            operator,\r\n            address(0),\r\n            to,\r\n            ids,\r\n            amounts,\r\n            data\r\n        );\r\n    }\r\n\r\n    /**\r\n     * @dev Destroys `amount` tokens of token type `id` from `from`\r\n     *\r\n     * Emits a {TransferSingle} event.\r\n     *\r\n     * Requirements:\r\n     *\r\n     * - `from` cannot be the zero address.\r\n     * - `from` must have at least `amount` tokens of token type `id`.\r\n     */\r\n    function _burn(\r\n        address from,\r\n        uint256 id,\r\n        uint256 amount\r\n    ) internal virtual {\r\n        require(from != address(0), \"ERC1155: burn from the zero address\");\r\n\r\n        address operator = _msgSender();\r\n        uint256[] memory ids = _asSingletonArray(id);\r\n        uint256[] memory amounts = _asSingletonArray(amount);\r\n\r\n        _beforeTokenTransfer(operator, from, address(0), ids, amounts, \"\");\r\n\r\n        uint256 fromBalance = _balances[id][from];\r\n        require(fromBalance >= amount, \"ERC1155: burn amount exceeds balance\");\r\n        unchecked {\r\n            _balances[id][from] = fromBalance - amount;\r\n        }\r\n\r\n        emit TransferSingle(operator, from, address(0), id, amount);\r\n\r\n        _afterTokenTransfer(operator, from, address(0), ids, amounts, \"\");\r\n    }\r\n\r\n    /**\r\n     * @dev xref:ROOT:erc1155.adoc#batch-operations[Batched] version of {_burn}.\r\n     *\r\n     * Emits a {TransferBatch} event.\r\n     *\r\n     * Requirements:\r\n     *\r\n     * - `ids` and `amounts` must have the same length.\r\n     */\r\n    function _burnBatch(\r\n        address from,\r\n        uint256[] memory ids,\r\n        uint256[] memory amounts\r\n    ) internal virtual {\r\n        require(from != address(0), \"ERC1155: burn from the zero address\");\r\n        require(\r\n            ids.length == amounts.length,\r\n            \"ERC1155: ids and amounts length mismatch\"\r\n        );\r\n\r\n        address operator = _msgSender();\r\n\r\n        _beforeTokenTransfer(operator, from, address(0), ids, amounts, \"\");\r\n\r\n        for (uint256 i = 0; i < ids.length; i++) {\r\n            uint256 id = ids[i];\r\n            uint256 amount = amounts[i];\r\n\r\n            uint256 fromBalance = _balances[id][from];\r\n            require(\r\n                fromBalance >= amount,\r\n                \"ERC1155: burn amount exceeds balance\"\r\n            );\r\n            unchecked {\r\n                _balances[id][from] = fromBalance - amount;\r\n            }\r\n        }\r\n\r\n        emit TransferBatch(operator, from, address(0), ids, amounts);\r\n\r\n        _afterTokenTransfer(operator, from, address(0), ids, amounts, \"\");\r\n    }\r\n\r\n    /**\r\n     * @dev Approve `operator` to operate on all of `owner` tokens\r\n     *\r\n     * Emits an {ApprovalForAll} event.\r\n     */\r\n    function _setApprovalForAll(\r\n        address owner,\r\n        address operator,\r\n        bool approved\r\n    ) internal virtual {\r\n        require(owner != operator, \"ERC1155: setting approval status for self\");\r\n        _operatorApprovals[owner][operator] = approved;\r\n        emit ApprovalForAll(owner, operator, approved);\r\n    }\r\n\r\n    /**\r\n     * @dev Hook that is called before any token transfer. This includes minting\r\n     * and burning, as well as batched variants.\r\n     *\r\n     * The same hook is called on both single and batched variants. For single\r\n     * transfers, the length of the `ids` and `amounts` arrays will be 1.\r\n     *\r\n     * Calling conditions (for each `id` and `amount` pair):\r\n     *\r\n     * - When `from` and `to` are both non-zero, `amount` of ``from``'s tokens\r\n     * of token type `id` will be  transferred to `to`.\r\n     * - When `from` is zero, `amount` tokens of token type `id` will be minted\r\n     * for `to`.\r\n     * - when `to` is zero, `amount` of ``from``'s tokens of token type `id`\r\n     * will be burned.\r\n     * - `from` and `to` are never both zero.\r\n     * - `ids` and `amounts` have the same, non-zero length.\r\n     *\r\n     * To learn more about hooks, head to xref:ROOT:extending-contracts.adoc#using-hooks[Using Hooks].\r\n     */\r\n    function _beforeTokenTransfer(\r\n        address operator,\r\n        address from,\r\n        address to,\r\n        uint256[] memory ids,\r\n        uint256[] memory amounts,\r\n        bytes memory data\r\n    ) internal virtual {}\r\n\r\n    /**\r\n     * @dev Hook that is called after any token transfer. This includes minting\r\n     * and burning, as well as batched variants.\r\n     *\r\n     * The same hook is called on both single and batched variants. For single\r\n     * transfers, the length of the `id` and `amount` arrays will be 1.\r\n     *\r\n     * Calling conditions (for each `id` and `amount` pair):\r\n     *\r\n     * - When `from` and `to` are both non-zero, `amount` of ``from``'s tokens\r\n     * of token type `id` will be  transferred to `to`.\r\n     * - When `from` is zero, `amount` tokens of token type `id` will be minted\r\n     * for `to`.\r\n     * - when `to` is zero, `amount` of ``from``'s tokens of token type `id`\r\n     * will be burned.\r\n     * - `from` and `to` are never both zero.\r\n     * - `ids` and `amounts` have the same, non-zero length.\r\n     *\r\n     * To learn more about hooks, head to xref:ROOT:extending-contracts.adoc#using-hooks[Using Hooks].\r\n     */\r\n    function _afterTokenTransfer(\r\n        address operator,\r\n        address from,\r\n        address to,\r\n        uint256[] memory ids,\r\n        uint256[] memory amounts,\r\n        bytes memory data\r\n    ) internal virtual {}\r\n\r\n    function _doSafeTransferAcceptanceCheck(\r\n        address operator,\r\n        address from,\r\n        address to,\r\n        uint256 id,\r\n        uint256 amount,\r\n        bytes memory data\r\n    ) private {\r\n        if (to.isContract()) {\r\n            try\r\n                IERC1155Receiver(to).onERC1155Received(\r\n                    operator,\r\n                    from,\r\n                    id,\r\n                    amount,\r\n                    data\r\n                )\r\n            returns (bytes4 response) {\r\n                if (response != IERC1155Receiver.onERC1155Received.selector) {\r\n                    revert(\"ERC1155: ERC1155Receiver rejected tokens\");\r\n                }\r\n            } catch Error(string memory reason) {\r\n                revert(reason);\r\n            } catch {\r\n                revert(\"ERC1155: transfer to non ERC1155Receiver implementer\");\r\n            }\r\n        }\r\n    }\r\n\r\n    function _doSafeBatchTransferAcceptanceCheck(\r\n        address operator,\r\n        address from,\r\n        address to,\r\n        uint256[] memory ids,\r\n        uint256[] memory amounts,\r\n        bytes memory data\r\n    ) private {\r\n        if (to.isContract()) {\r\n            try\r\n                IERC1155Receiver(to).onERC1155BatchReceived(\r\n                    operator,\r\n                    from,\r\n                    ids,\r\n                    amounts,\r\n                    data\r\n                )\r\n            returns (bytes4 response) {\r\n                if (\r\n                    response != IERC1155Receiver.onERC1155BatchReceived.selector\r\n                ) {\r\n                    revert(\"ERC1155: ERC1155Receiver rejected tokens\");\r\n                }\r\n            } catch Error(string memory reason) {\r\n                revert(reason);\r\n            } catch {\r\n                revert(\"ERC1155: transfer to non ERC1155Receiver implementer\");\r\n            }\r\n        }\r\n    }\r\n\r\n    function _asSingletonArray(uint256 element)\r\n        private\r\n        pure\r\n        returns (uint256[] memory)\r\n    {\r\n        uint256[] memory array = new uint256[](1);\r\n        array[0] = element;\r\n\r\n        return array;\r\n    }\r\n}\r\n\r\n// File: @openzeppelin/contracts/token/ERC1155/extensions/ERC1155Supply.sol\r\n\r\n// OpenZeppelin Contracts (last updated v4.6.0) (token/ERC1155/extensions/ERC1155Supply.sol)\r\n\r\npragma solidity ^0.8.0;\r\n\r\n/**\r\n * @dev Extension of ERC1155 that adds tracking of total supply per id.\r\n *\r\n * Useful for scenarios where Fungible and Non-fungible tokens have to be\r\n * clearly identified. Note: While a totalSupply of 1 might mean the\r\n * corresponding is an NFT, there is no guarantees that no other token with the\r\n * same id are not going to be minted.\r\n */\r\nabstract contract ERC1155Supply is ERC1155 {\r\n    mapping(uint256 => uint256) private _totalSupply;\r\n\r\n    /**\r\n     * @dev Total amount of tokens in with a given id.\r\n     */\r\n    function totalSupply(uint256 id) public view virtual returns (uint256) {\r\n        return _totalSupply[id];\r\n    }\r\n\r\n    /**\r\n     * @dev Indicates whether any token exist with a given id, or not.\r\n     */\r\n    function exists(uint256 id) public view virtual returns (bool) {\r\n        return ERC1155Supply.totalSupply(id) > 0;\r\n    }\r\n\r\n    /**\r\n     * @dev See {ERC1155-_beforeTokenTransfer}.\r\n     */\r\n    function _beforeTokenTransfer(\r\n        address operator,\r\n        address from,\r\n        address to,\r\n        uint256[] memory ids,\r\n        uint256[] memory amounts,\r\n        bytes memory data\r\n    ) internal virtual override {\r\n        super._beforeTokenTransfer(operator, from, to, ids, amounts, data);\r\n\r\n        if (from == address(0)) {\r\n            for (uint256 i = 0; i < ids.length; ++i) {\r\n                _totalSupply[ids[i]] += amounts[i];\r\n            }\r\n        }\r\n\r\n        if (to == address(0)) {\r\n            for (uint256 i = 0; i < ids.length; ++i) {\r\n                uint256 id = ids[i];\r\n                uint256 amount = amounts[i];\r\n                uint256 supply = _totalSupply[id];\r\n                require(\r\n                    supply >= amount,\r\n                    \"ERC1155: burn amount exceeds totalSupply\"\r\n                );\r\n                unchecked {\r\n                    _totalSupply[id] = supply - amount;\r\n                }\r\n            }\r\n        }\r\n    }\r\n}\r\n\r\n// File: contracts/CryptoRoots.sol\r\n\r\npragma solidity ^0.8.4;\r\n\r\n/// @custom:security-contact hello@cryptoroots.xyz\r\ncontract CryptoRoots is ERC1155, Pausable, Ownable, ERC1155Supply {\r\n    AggregatorV3Interface internal priceFeed;\r\n    uint256 public usdId1;\r\n    uint256 public usdId2;\r\n    uint256 public usdId3;\r\n    uint256 public usdId4;\r\n    uint256 public usdId5;\r\n\r\n    // Total supply of each id (supply[id1, id2, id3, id4, id5]) is 3 trillion.\r\n    uint256[] supply = [\r\n        3000000000000,\r\n        3000000000000,\r\n        3000000000000,\r\n        3000000000000,\r\n        3000000000000\r\n    ];\r\n    uint256[] mints = [0, 0, 0, 0, 0];\r\n    uint256[] cost = [0.0001 ether, 0.0001 ether, 0.0001 ether, 0.0001 ether, 0.0001 ether];\r\n\r\n    constructor()\r\n        ERC1155(\r\n            \"ipfs://bafybeifgz4l3tfaoj2zbdxy3cu5xclzk4bfu2cmrpgz4qraxoylvxnawdy/{id}.json\"\r\n        )\r\n    {\r\n        // Converting USD in wei\r\n        usdId1 = 1 * (10**18);\r\n        usdId2 = 5 * (10**18);\r\n        usdId3 = 10 * (10**18);\r\n        usdId4 = 20 * (10**18);\r\n        usdId5 = 100 * (10**18);\r\n        // ETH/USD Rinkeby price feed: 0x8A753747A1Fa494EC906cE90E9f37563A8AF630e\r\n        \r\n        priceFeed = AggregatorV3Interface(\r\n            0xd0D5e3DB44DE05E9F294BB0a3bEEaF030DE24Ada\r\n        );\r\n    }\r\n\r\n    // Get the latest USDC price for each ID in wei\r\n    function getLatestPriceId1() public view returns (uint256) {\r\n        (\r\n            ,\r\n            /*uint80 roundID*/\r\n            int256 price,\r\n            ,\r\n            ,\r\n\r\n        ) = /*uint startedAt*/\r\n            /*uint timeStamp*/\r\n            /*uint80 answeredInRound*/\r\n            priceFeed.latestRoundData();\r\n        uint256 adjustedPrice = uint256(price) * 10**10;\r\n        uint256 costId1 = (usdId1 * 10**17) / adjustedPrice;\r\n        return costId1;\r\n    }\r\n\r\n    function getLatestPriceId2() public view returns (uint256) {\r\n        (\r\n            ,\r\n            /*uint80 roundID*/\r\n            int256 price,\r\n            ,\r\n            ,\r\n\r\n        ) = /*uint startedAt*/\r\n            /*uint timeStamp*/\r\n            /*uint80 answeredInRound*/\r\n            priceFeed.latestRoundData();\r\n        uint256 adjustedPrice = uint256(price) * 10**10;\r\n        uint256 costId2 = (usdId2 * 10**17) / adjustedPrice;\r\n        return costId2;\r\n    }\r\n\r\n    function getLatestPriceId3() public view returns (uint256) {\r\n        (\r\n            ,\r\n            /*uint80 roundID*/\r\n            int256 price,\r\n            ,\r\n            ,\r\n\r\n        ) = /*uint startedAt*/\r\n            /*uint timeStamp*/\r\n            /*uint80 answeredInRound*/\r\n            priceFeed.latestRoundData();\r\n        uint256 adjustedPrice = uint256(price) * 10**10;\r\n        uint256 costId3 = (usdId3 * 10**17) / adjustedPrice;\r\n        return costId3;\r\n    }\r\n\r\n    function getLatestPriceId4() public view returns (uint256) {\r\n        (\r\n            ,\r\n            /*uint80 roundID*/\r\n            int256 price,\r\n            ,\r\n            ,\r\n\r\n        ) = /*uint startedAt*/\r\n            /*uint timeStamp*/\r\n            /*uint80 answeredInRound*/\r\n            priceFeed.latestRoundData();\r\n        uint256 adjustedPrice = uint256(price) * 10**10;\r\n        uint256 costId4 = (usdId4 * 10**17) / adjustedPrice;\r\n        return costId4;\r\n    }\r\n\r\n    function getLatestPriceId5() public view returns (uint256) {\r\n        (\r\n            ,\r\n            /*uint80 roundID*/\r\n            int256 price,\r\n            ,\r\n            ,\r\n\r\n        ) = /*uint startedAt*/\r\n            /*uint timeStamp*/\r\n            /*uint80 answeredInRound*/\r\n            priceFeed.latestRoundData();\r\n        uint256 adjustedPrice = uint256(price) * 10**10;\r\n        uint256 costId5 = (usdId5 * 10**17) / adjustedPrice;\r\n        return costId5;\r\n    }\r\n\r\n    // Public mint function\r\n    function mint(uint256 id, uint256 amount) public payable {\r\n        require(id <= supply.length, \"Mint is over.\");\r\n        require(id > 0, \"Token doesn't exist.\");\r\n        uint256 index = id - 1;\r\n        require(mints[index] + amount <= supply[index], \"Not enough supply!\");\r\n        require(msg.value >= amount * cost[index], \"Not enough cost sent!\");\r\n        _mint(msg.sender, id, amount, \"\");\r\n        mints[index] += amount;\r\n    }\r\n\r\n    // OnlyOwner functions\r\n    function setURI(string memory newuri) public onlyOwner {\r\n        _setURI(newuri);\r\n    }\r\n\r\n    function pause() public onlyOwner {\r\n        _pause();\r\n    }\r\n\r\n    function unpause() public onlyOwner {\r\n        _unpause();\r\n    }\r\n\r\n    function withdraw() public onlyOwner {\r\n        require(address(this).balance > 0, \"Balance is zero\");\r\n        payable(owner()).transfer(address(this).balance);\r\n    }\r\n\r\n    function _beforeTokenTransfer(\r\n        address operator,\r\n        address from,\r\n        address to,\r\n        uint256[] memory ids,\r\n        uint256[] memory amounts,\r\n        bytes memory data\r\n    ) internal override(ERC1155, ERC1155Supply) whenNotPaused {\r\n        super._beforeTokenTransfer(operator, from, to, ids, amounts, data);\r\n    }\r\n}\r\n",
  "sourcePath": "D:\\Codes\\hackcbs6\\crowdchain\\contracts\\CryptoRoots.sol",
  "compiler": {
    "name": "solc",
    "version": "0.8.22+commit.4fc1097e.Emscripten.clang"
  },
  "schemaVersion": "3.4.16",
  "updatedAt": "2023-11-05T03:35:30.851Z",
  "networkType": "ethereum",
  "devdoc": {
    "custom:security-contact": "hello@cryptoroots.xyz",
    "events": {
      "ApprovalForAll(address,address,bool)": {
        "details": "Emitted when `account` grants or revokes permission to `operator` to transfer their tokens, according to `approved`."
      },
      "Paused(address)": {
        "details": "Emitted when the pause is triggered by `account`."
      },
      "TransferBatch(address,address,address,uint256[],uint256[])": {
        "details": "Equivalent to multiple {TransferSingle} events, where `operator`, `from` and `to` are the same for all transfers."
      },
      "TransferSingle(address,address,address,uint256,uint256)": {
        "details": "Emitted when `value` tokens of token type `id` are transferred from `from` to `to` by `operator`."
      },
      "URI(string,uint256)": {
        "details": "Emitted when the URI for token type `id` changes to `value`, if it is a non-programmatic URI. If an {URI} event was emitted for `id`, the standard https://eips.ethereum.org/EIPS/eip-1155#metadata-extensions[guarantees] that `value` will equal the value returned by {IERC1155MetadataURI-uri}."
      },
      "Unpaused(address)": {
        "details": "Emitted when the pause is lifted by `account`."
      }
    },
    "kind": "dev",
    "methods": {
      "balanceOf(address,uint256)": {
        "details": "See {IERC1155-balanceOf}. Requirements: - `account` cannot be the zero address."
      },
      "balanceOfBatch(address[],uint256[])": {
        "details": "See {IERC1155-balanceOfBatch}. Requirements: - `accounts` and `ids` must have the same length."
      },
      "exists(uint256)": {
        "details": "Indicates whether any token exist with a given id, or not."
      },
      "isApprovedForAll(address,address)": {
        "details": "See {IERC1155-isApprovedForAll}."
      },
      "owner()": {
        "details": "Returns the address of the current owner."
      },
      "paused()": {
        "details": "Returns true if the contract is paused, and false otherwise."
      },
      "renounceOwnership()": {
        "details": "Leaves the contract without owner. It will not be possible to call `onlyOwner` functions anymore. Can only be called by the current owner. NOTE: Renouncing ownership will leave the contract without an owner, thereby removing any functionality that is only available to the owner."
      },
      "safeBatchTransferFrom(address,address,uint256[],uint256[],bytes)": {
        "details": "See {IERC1155-safeBatchTransferFrom}."
      },
      "safeTransferFrom(address,address,uint256,uint256,bytes)": {
        "details": "See {IERC1155-safeTransferFrom}."
      },
      "setApprovalForAll(address,bool)": {
        "details": "See {IERC1155-setApprovalForAll}."
      },
      "supportsInterface(bytes4)": {
        "details": "See {IERC165-supportsInterface}."
      },
      "totalSupply(uint256)": {
        "details": "Total amount of tokens in with a given id."
      },
      "transferOwnership(address)": {
        "details": "Transfers ownership of the contract to a new account (`newOwner`). Can only be called by the current owner."
      },
      "uri(uint256)": {
        "details": "See {IERC1155MetadataURI-uri}. This implementation returns the same URI for *all* token types. It relies on the token type ID substitution mechanism https://eips.ethereum.org/EIPS/eip-1155#metadata[defined in the EIP]. Clients calling this function must replace the `\\{id\\}` substring with the actual token type ID."
      }
    },
    "version": 1
  },
  "userdoc": {
    "kind": "user",
    "methods": {},
    "version": 1
  }
}